{
  "contractName": "Sigil",
  "abi": [
    {
      "constant": true,
      "inputs": [],
      "name": "mintingFinished",
      "outputs": [
        {
          "name": "",
          "type": "bool"
        }
      ],
      "payable": false,
      "stateMutability": "view",
      "type": "function"
    },
    {
      "constant": true,
      "inputs": [],
      "name": "name",
      "outputs": [
        {
          "name": "",
          "type": "string"
        }
      ],
      "payable": false,
      "stateMutability": "view",
      "type": "function"
    },
    {
      "constant": false,
      "inputs": [
        {
          "name": "_spender",
          "type": "address"
        },
        {
          "name": "_value",
          "type": "uint256"
        }
      ],
      "name": "approve",
      "outputs": [
        {
          "name": "",
          "type": "bool"
        }
      ],
      "payable": false,
      "stateMutability": "nonpayable",
      "type": "function"
    },
    {
      "constant": true,
      "inputs": [],
      "name": "pool",
      "outputs": [
        {
          "name": "",
          "type": "address"
        }
      ],
      "payable": false,
      "stateMutability": "view",
      "type": "function"
    },
    {
      "constant": true,
      "inputs": [],
      "name": "totalSupply",
      "outputs": [
        {
          "name": "",
          "type": "uint256"
        }
      ],
      "payable": false,
      "stateMutability": "view",
      "type": "function"
    },
    {
      "constant": false,
      "inputs": [
        {
          "name": "_from",
          "type": "address"
        },
        {
          "name": "_to",
          "type": "address"
        },
        {
          "name": "_value",
          "type": "uint256"
        }
      ],
      "name": "transferFrom",
      "outputs": [
        {
          "name": "",
          "type": "bool"
        }
      ],
      "payable": false,
      "stateMutability": "nonpayable",
      "type": "function"
    },
    {
      "constant": true,
      "inputs": [],
      "name": "decimals",
      "outputs": [
        {
          "name": "",
          "type": "uint8"
        }
      ],
      "payable": false,
      "stateMutability": "view",
      "type": "function"
    },
    {
      "constant": true,
      "inputs": [
        {
          "name": "",
          "type": "address"
        }
      ],
      "name": "stakeBalances",
      "outputs": [
        {
          "name": "initialStakeBalance",
          "type": "uint256"
        },
        {
          "name": "initialStakeTime",
          "type": "uint256"
        },
        {
          "name": "initialStakePercentage",
          "type": "uint256"
        },
        {
          "name": "stakeSplitAddress",
          "type": "address"
        }
      ],
      "payable": false,
      "stateMutability": "view",
      "type": "function"
    },
    {
      "constant": false,
      "inputs": [
        {
          "name": "_to",
          "type": "address"
        },
        {
          "name": "_amount",
          "type": "uint256"
        }
      ],
      "name": "mint",
      "outputs": [
        {
          "name": "",
          "type": "bool"
        }
      ],
      "payable": false,
      "stateMutability": "nonpayable",
      "type": "function"
    },
    {
      "constant": false,
      "inputs": [
        {
          "name": "_spender",
          "type": "address"
        },
        {
          "name": "_subtractedValue",
          "type": "uint256"
        }
      ],
      "name": "decreaseApproval",
      "outputs": [
        {
          "name": "",
          "type": "bool"
        }
      ],
      "payable": false,
      "stateMutability": "nonpayable",
      "type": "function"
    },
    {
      "constant": true,
      "inputs": [
        {
          "name": "_owner",
          "type": "address"
        }
      ],
      "name": "balanceOf",
      "outputs": [
        {
          "name": "",
          "type": "uint256"
        }
      ],
      "payable": false,
      "stateMutability": "view",
      "type": "function"
    },
    {
      "constant": false,
      "inputs": [],
      "name": "finishMinting",
      "outputs": [
        {
          "name": "",
          "type": "bool"
        }
      ],
      "payable": false,
      "stateMutability": "nonpayable",
      "type": "function"
    },
    {
      "constant": true,
      "inputs": [],
      "name": "owner",
      "outputs": [
        {
          "name": "",
          "type": "address"
        }
      ],
      "payable": false,
      "stateMutability": "view",
      "type": "function"
    },
    {
      "constant": true,
      "inputs": [],
      "name": "poolMintRate",
      "outputs": [
        {
          "name": "",
          "type": "uint256"
        }
      ],
      "payable": false,
      "stateMutability": "view",
      "type": "function"
    },
    {
      "constant": true,
      "inputs": [],
      "name": "symbol",
      "outputs": [
        {
          "name": "",
          "type": "string"
        }
      ],
      "payable": false,
      "stateMutability": "view",
      "type": "function"
    },
    {
      "constant": false,
      "inputs": [],
      "name": "reclaimEther",
      "outputs": [],
      "payable": false,
      "stateMutability": "nonpayable",
      "type": "function"
    },
    {
      "constant": true,
      "inputs": [],
      "name": "ownerMintRate",
      "outputs": [
        {
          "name": "",
          "type": "uint256"
        }
      ],
      "payable": false,
      "stateMutability": "view",
      "type": "function"
    },
    {
      "constant": false,
      "inputs": [
        {
          "name": "_to",
          "type": "address"
        },
        {
          "name": "_value",
          "type": "uint256"
        }
      ],
      "name": "transfer",
      "outputs": [
        {
          "name": "",
          "type": "bool"
        }
      ],
      "payable": false,
      "stateMutability": "nonpayable",
      "type": "function"
    },
    {
      "constant": true,
      "inputs": [],
      "name": "ownerTimeLastMinted",
      "outputs": [
        {
          "name": "",
          "type": "uint256"
        }
      ],
      "payable": false,
      "stateMutability": "view",
      "type": "function"
    },
    {
      "constant": false,
      "inputs": [
        {
          "name": "_spender",
          "type": "address"
        },
        {
          "name": "_addedValue",
          "type": "uint256"
        }
      ],
      "name": "increaseApproval",
      "outputs": [
        {
          "name": "",
          "type": "bool"
        }
      ],
      "payable": false,
      "stateMutability": "nonpayable",
      "type": "function"
    },
    {
      "constant": true,
      "inputs": [],
      "name": "totalSigilStaked",
      "outputs": [
        {
          "name": "",
          "type": "uint256"
        }
      ],
      "payable": false,
      "stateMutability": "view",
      "type": "function"
    },
    {
      "constant": true,
      "inputs": [
        {
          "name": "_owner",
          "type": "address"
        },
        {
          "name": "_spender",
          "type": "address"
        }
      ],
      "name": "allowance",
      "outputs": [
        {
          "name": "",
          "type": "uint256"
        }
      ],
      "payable": false,
      "stateMutability": "view",
      "type": "function"
    },
    {
      "constant": false,
      "inputs": [
        {
          "name": "newOwner",
          "type": "address"
        }
      ],
      "name": "transferOwnership",
      "outputs": [],
      "payable": false,
      "stateMutability": "nonpayable",
      "type": "function"
    },
    {
      "inputs": [],
      "payable": false,
      "stateMutability": "nonpayable",
      "type": "constructor"
    },
    {
      "payable": false,
      "stateMutability": "nonpayable",
      "type": "fallback"
    },
    {
      "anonymous": false,
      "inputs": [
        {
          "indexed": true,
          "name": "staker",
          "type": "address"
        },
        {
          "indexed": true,
          "name": "stakeSplitAddress",
          "type": "address"
        },
        {
          "indexed": false,
          "name": "value",
          "type": "uint256"
        }
      ],
      "name": "Stake",
      "type": "event"
    },
    {
      "anonymous": false,
      "inputs": [
        {
          "indexed": true,
          "name": "vester",
          "type": "address"
        },
        {
          "indexed": true,
          "name": "stakeSplitAddress",
          "type": "address"
        },
        {
          "indexed": false,
          "name": "stakedAmount",
          "type": "uint256"
        },
        {
          "indexed": false,
          "name": "stakingGains",
          "type": "uint256"
        }
      ],
      "name": "Vest",
      "type": "event"
    },
    {
      "anonymous": false,
      "inputs": [
        {
          "indexed": true,
          "name": "to",
          "type": "address"
        },
        {
          "indexed": false,
          "name": "amount",
          "type": "uint256"
        }
      ],
      "name": "Mint",
      "type": "event"
    },
    {
      "anonymous": false,
      "inputs": [],
      "name": "MintFinished",
      "type": "event"
    },
    {
      "anonymous": false,
      "inputs": [
        {
          "indexed": true,
          "name": "previousOwner",
          "type": "address"
        },
        {
          "indexed": true,
          "name": "newOwner",
          "type": "address"
        }
      ],
      "name": "OwnershipTransferred",
      "type": "event"
    },
    {
      "anonymous": false,
      "inputs": [
        {
          "indexed": true,
          "name": "owner",
          "type": "address"
        },
        {
          "indexed": true,
          "name": "spender",
          "type": "address"
        },
        {
          "indexed": false,
          "name": "value",
          "type": "uint256"
        }
      ],
      "name": "Approval",
      "type": "event"
    },
    {
      "anonymous": false,
      "inputs": [
        {
          "indexed": true,
          "name": "from",
          "type": "address"
        },
        {
          "indexed": true,
          "name": "to",
          "type": "address"
        },
        {
          "indexed": false,
          "name": "value",
          "type": "uint256"
        }
      ],
      "name": "Transfer",
      "type": "event"
    },
    {
      "constant": false,
      "inputs": [
        {
          "name": "_stakeAmount",
          "type": "uint256"
        }
      ],
      "name": "stakeSigil",
      "outputs": [],
      "payable": false,
      "stateMutability": "nonpayable",
      "type": "function"
    },
    {
      "constant": false,
      "inputs": [
        {
          "name": "amount",
          "type": "uint256"
        },
        {
          "name": "data",
          "type": "bytes"
        }
      ],
      "name": "unstake",
      "outputs": [
        {
          "name": "success",
          "type": "bool"
        }
      ],
      "payable": false,
      "stateMutability": "nonpayable",
      "type": "function"
    },
    {
      "constant": true,
      "inputs": [],
      "name": "totalStaked",
      "outputs": [
        {
          "name": "",
          "type": "uint256"
        }
      ],
      "payable": false,
      "stateMutability": "view",
      "type": "function"
    },
    {
      "constant": true,
      "inputs": [],
      "name": "getStakedBalance",
      "outputs": [
        {
          "name": "stakedBalance",
          "type": "uint256"
        }
      ],
      "payable": false,
      "stateMutability": "view",
      "type": "function"
    },
    {
      "constant": false,
      "inputs": [],
      "name": "ownerClaim",
      "outputs": [],
      "payable": false,
      "stateMutability": "nonpayable",
      "type": "function"
    },
    {
      "constant": false,
      "inputs": [],
      "name": "poolClaim",
      "outputs": [],
      "payable": false,
      "stateMutability": "nonpayable",
      "type": "function"
    },
    {
      "constant": false,
      "inputs": [
        {
          "name": "_newAddress",
          "type": "address"
        }
      ],
      "name": "setPool",
      "outputs": [],
      "payable": false,
      "stateMutability": "nonpayable",
      "type": "function"
    }
  ],
  "bytecode": "0x60806040526000600360146101000a81548160ff0219169083151502179055503480156200002c57600080fd5b5060008033600360006101000a81548173ffffffffffffffffffffffffffffffffffffffff021916908373ffffffffffffffffffffffffffffffffffffffff1602179055506000341415156200008157600080fd5b33600360006101000a81548173ffffffffffffffffffffffffffffffffffffffff021916908373ffffffffffffffffffffffffffffffffffffffff1602179055506a015d66ade20554e34000009150620000eb338362000161640100000000026401000000009004565b9050801515620000fa57600080fd5b426004819055506200012661119462015180601260ff1662000369640100000000026401000000009004565b60058190555062000153624ac4a06301e13380601260ff1662000369640100000000026401000000009004565b600681905550505062000447565b6000600360009054906101000a900473ffffffffffffffffffffffffffffffffffffffff1673ffffffffffffffffffffffffffffffffffffffff163373ffffffffffffffffffffffffffffffffffffffff16141515620001c057600080fd5b600360149054906101000a900460ff16151515620001dd57600080fd5b6200020282600154620003d764010000000002620024fd179091906401000000009004565b60018190555062000269826000808673ffffffffffffffffffffffffffffffffffffffff1673ffffffffffffffffffffffffffffffffffffffff16815260200190815260200160002054620003d764010000000002620024fd179091906401000000009004565b6000808573ffffffffffffffffffffffffffffffffffffffff1673ffffffffffffffffffffffffffffffffffffffff168152602001908152602001600020819055508273ffffffffffffffffffffffffffffffffffffffff167f0f6798a560793a54c3bcfe86a93cde1e73087d944c0ea20544137d4121396885836040518082815260200191505060405180910390a28273ffffffffffffffffffffffffffffffffffffffff16600073ffffffffffffffffffffffffffffffffffffffff167fddf252ad1be2c89b69c2b068fc378daa952ba7f163c4a11628f55a4df523b3ef846040518082815260200191505060405180910390a36001905092915050565b6000806200039560018401600a0a86620003f46401000000000262002980179091906401000000009004565b9450600a6005620003be868862000430640100000000026200296a179091906401000000009004565b01811515620003c957fe5b049050809150509392505050565b60008183019050828110151515620003eb57fe5b80905092915050565b6000808314156200040957600090506200042a565b81830290508183828115156200041b57fe5b041415156200042657fe5b8090505b92915050565b600081838115156200043e57fe5b04905092915050565b612a3180620004576000396000f300608060405260043610610180576000357c0100000000000000000000000000000000000000000000000000000000900463ffffffff16806305d2035b1461018f57806306fdde03146101be578063095ea7b31461024e57806316f0115b146102b357806318160ddd1461030a57806323b872dd14610335578063313ce567146103ba5780633b317dab146103eb57806340c10f19146104835780634437152a146104e85780634dbe58891461052b578063661884631461054257806370a08231146105a757806376965867146105fe5780637d64bcb414610629578063817b1cd2146106585780638da5cb5b1461068357806390cad537146106da57806395d89b41146107055780639f727c2714610795578063a0d8b4e9146107ac578063a341c85b146107d7578063a9059cbb146107ee578063ac18564414610853578063bc805c521461087e578063c8fd6ed0146108ab578063d73dd62314610908578063d9a14d681461096d578063dd62ed3e14610998578063f2fde38b14610a0f575b34801561018c57600080fd5b50005b34801561019b57600080fd5b506101a4610a52565b604051808215151515815260200191505060405180910390f35b3480156101ca57600080fd5b506101d3610a65565b6040518080602001828103825283818151815260200191508051906020019080838360005b838110156102135780820151818401526020810190506101f8565b50505050905090810190601f1680156102405780820380516001836020036101000a031916815260200191505b509250505060405180910390f35b34801561025a57600080fd5b50610299600480360381019080803573ffffffffffffffffffffffffffffffffffffffff16906020019092919080359060200190929190505050610a9e565b604051808215151515815260200191505060405180910390f35b3480156102bf57600080fd5b506102c8610b90565b604051808273ffffffffffffffffffffffffffffffffffffffff1673ffffffffffffffffffffffffffffffffffffffff16815260200191505060405180910390f35b34801561031657600080fd5b5061031f610bb6565b6040518082815260200191505060405180910390f35b34801561034157600080fd5b506103a0600480360381019080803573ffffffffffffffffffffffffffffffffffffffff169060200190929190803573ffffffffffffffffffffffffffffffffffffffff16906020019092919080359060200190929190505050610bc0565b604051808215151515815260200191505060405180910390f35b3480156103c657600080fd5b506103cf610f7a565b604051808260ff1660ff16815260200191505060405180910390f35b3480156103f757600080fd5b5061042c600480360381019080803573ffffffffffffffffffffffffffffffffffffffff169060200190929190505050610f7f565b604051808581526020018481526020018381526020018273ffffffffffffffffffffffffffffffffffffffff1673ffffffffffffffffffffffffffffffffffffffff16815260200194505050505060405180910390f35b34801561048f57600080fd5b506104ce600480360381019080803573ffffffffffffffffffffffffffffffffffffffff16906020019092919080359060200190929190505050610fcf565b604051808215151515815260200191505060405180910390f35b3480156104f457600080fd5b50610529600480360381019080803573ffffffffffffffffffffffffffffffffffffffff1690602001909291905050506111b5565b005b34801561053757600080fd5b50610540611255565b005b34801561054e57600080fd5b5061058d600480360381019080803573ffffffffffffffffffffffffffffffffffffffff1690602001909291908035906020019092919050505061131b565b604051808215151515815260200191505060405180910390f35b3480156105b357600080fd5b506105e8600480360381019080803573ffffffffffffffffffffffffffffffffffffffff1690602001909291905050506115ac565b6040518082815260200191505060405180910390f35b34801561060a57600080fd5b506106136115f4565b6040518082815260200191505060405180910390f35b34801561063557600080fd5b5061063e61163e565b604051808215151515815260200191505060405180910390f35b34801561066457600080fd5b5061066d611706565b6040518082815260200191505060405180910390f35b34801561068f57600080fd5b50610698611710565b604051808273ffffffffffffffffffffffffffffffffffffffff1673ffffffffffffffffffffffffffffffffffffffff16815260200191505060405180910390f35b3480156106e657600080fd5b506106ef611736565b6040518082815260200191505060405180910390f35b34801561071157600080fd5b5061071a61173c565b6040518080602001828103825283818151815260200191508051906020019080838360005b8381101561075a57808201518184015260208101905061073f565b50505050905090810190601f1680156107875780820380516001836020036101000a031916815260200191505b509250505060405180910390f35b3480156107a157600080fd5b506107aa611775565b005b3480156107b857600080fd5b506107c1611849565b6040518082815260200191505060405180910390f35b3480156107e357600080fd5b506107ec61184f565b005b3480156107fa57600080fd5b50610839600480360381019080803573ffffffffffffffffffffffffffffffffffffffff16906020019092919080359060200190929190505050611937565b604051808215151515815260200191505060405180910390f35b34801561085f57600080fd5b50610868611b56565b6040518082815260200191505060405180910390f35b34801561088a57600080fd5b506108a960048036038101908080359060200190929190505050611b5c565b005b3480156108b757600080fd5b506108ee60048036038101908080359060200190929190803590602001908201803590602001919091929391929390505050611b73565b604051808215151515815260200191505060405180910390f35b34801561091457600080fd5b50610953600480360381019080803573ffffffffffffffffffffffffffffffffffffffff16906020019092919080359060200190929190505050612103565b604051808215151515815260200191505060405180910390f35b34801561097957600080fd5b506109826122ff565b6040518082815260200191505060405180910390f35b3480156109a457600080fd5b506109f9600480360381019080803573ffffffffffffffffffffffffffffffffffffffff169060200190929190803573ffffffffffffffffffffffffffffffffffffffff169060200190929190505050612305565b6040518082815260200191505060405180910390f35b348015610a1b57600080fd5b50610a50600480360381019080803573ffffffffffffffffffffffffffffffffffffffff16906020019092919050505061238c565b005b600360149054906101000a900460ff1681565b6040805190810160405280600581526020017f536967696c00000000000000000000000000000000000000000000000000000081525081565b600081600260003373ffffffffffffffffffffffffffffffffffffffff1673ffffffffffffffffffffffffffffffffffffffff16815260200190815260200160002060008573ffffffffffffffffffffffffffffffffffffffff1673ffffffffffffffffffffffffffffffffffffffff168152602001908152602001600020819055508273ffffffffffffffffffffffffffffffffffffffff163373ffffffffffffffffffffffffffffffffffffffff167f8c5be1e5ebec7d5bd14f71427d1e84f3dd0314c0f7b2291e5b200ac8c7c3b925846040518082815260200191505060405180910390a36001905092915050565b600860009054906101000a900473ffffffffffffffffffffffffffffffffffffffff1681565b6000600154905090565b60008073ffffffffffffffffffffffffffffffffffffffff168373ffffffffffffffffffffffffffffffffffffffff1614151515610bfd57600080fd5b6000808573ffffffffffffffffffffffffffffffffffffffff1673ffffffffffffffffffffffffffffffffffffffff168152602001908152602001600020548211151515610c4a57600080fd5b600260008573ffffffffffffffffffffffffffffffffffffffff1673ffffffffffffffffffffffffffffffffffffffff16815260200190815260200160002060003373ffffffffffffffffffffffffffffffffffffffff1673ffffffffffffffffffffffffffffffffffffffff168152602001908152602001600020548211151515610cd557600080fd5b610d26826000808773ffffffffffffffffffffffffffffffffffffffff1673ffffffffffffffffffffffffffffffffffffffff168152602001908152602001600020546124e490919063ffffffff16565b6000808673ffffffffffffffffffffffffffffffffffffffff1673ffffffffffffffffffffffffffffffffffffffff16815260200190815260200160002081905550610db9826000808673ffffffffffffffffffffffffffffffffffffffff1673ffffffffffffffffffffffffffffffffffffffff168152602001908152602001600020546124fd90919063ffffffff16565b6000808573ffffffffffffffffffffffffffffffffffffffff1673ffffffffffffffffffffffffffffffffffffffff16815260200190815260200160002081905550610e8a82600260008773ffffffffffffffffffffffffffffffffffffffff1673ffffffffffffffffffffffffffffffffffffffff16815260200190815260200160002060003373ffffffffffffffffffffffffffffffffffffffff1673ffffffffffffffffffffffffffffffffffffffff168152602001908152602001600020546124e490919063ffffffff16565b600260008673ffffffffffffffffffffffffffffffffffffffff1673ffffffffffffffffffffffffffffffffffffffff16815260200190815260200160002060003373ffffffffffffffffffffffffffffffffffffffff1673ffffffffffffffffffffffffffffffffffffffff168152602001908152602001600020819055508273ffffffffffffffffffffffffffffffffffffffff168473ffffffffffffffffffffffffffffffffffffffff167fddf252ad1be2c89b69c2b068fc378daa952ba7f163c4a11628f55a4df523b3ef846040518082815260200191505060405180910390a3600190509392505050565b601281565b600b6020528060005260406000206000915090508060000154908060010154908060020154908060030160009054906101000a900473ffffffffffffffffffffffffffffffffffffffff16905084565b6000600360009054906101000a900473ffffffffffffffffffffffffffffffffffffffff1673ffffffffffffffffffffffffffffffffffffffff163373ffffffffffffffffffffffffffffffffffffffff1614151561102d57600080fd5b600360149054906101000a900460ff1615151561104957600080fd5b61105e826001546124fd90919063ffffffff16565b6001819055506110b5826000808673ffffffffffffffffffffffffffffffffffffffff1673ffffffffffffffffffffffffffffffffffffffff168152602001908152602001600020546124fd90919063ffffffff16565b6000808573ffffffffffffffffffffffffffffffffffffffff1673ffffffffffffffffffffffffffffffffffffffff168152602001908152602001600020819055508273ffffffffffffffffffffffffffffffffffffffff167f0f6798a560793a54c3bcfe86a93cde1e73087d944c0ea20544137d4121396885836040518082815260200191505060405180910390a28273ffffffffffffffffffffffffffffffffffffffff16600073ffffffffffffffffffffffffffffffffffffffff167fddf252ad1be2c89b69c2b068fc378daa952ba7f163c4a11628f55a4df523b3ef846040518082815260200191505060405180910390a36001905092915050565b600360009054906101000a900473ffffffffffffffffffffffffffffffffffffffff1673ffffffffffffffffffffffffffffffffffffffff163373ffffffffffffffffffffffffffffffffffffffff1614151561121157600080fd5b80600860006101000a81548173ffffffffffffffffffffffffffffffffffffffff021916908373ffffffffffffffffffffffffffffffffffffffff16021790555050565b6000806000600360009054906101000a900473ffffffffffffffffffffffffffffffffffffffff1673ffffffffffffffffffffffffffffffffffffffff163373ffffffffffffffffffffffffffffffffffffffff161415156112b657600080fd5b600454421115156112c657600080fd5b6112db600454426124e490919063ffffffff16565b92506000831115156112e957fe5b6112f583600554612519565b91506113013383610fcf565b905080151561130f57600080fd5b42600481905550505050565b600080600260003373ffffffffffffffffffffffffffffffffffffffff1673ffffffffffffffffffffffffffffffffffffffff16815260200190815260200160002060008573ffffffffffffffffffffffffffffffffffffffff1673ffffffffffffffffffffffffffffffffffffffff1681526020019081526020016000205490508083111561142c576000600260003373ffffffffffffffffffffffffffffffffffffffff1673ffffffffffffffffffffffffffffffffffffffff16815260200190815260200160002060008673ffffffffffffffffffffffffffffffffffffffff1673ffffffffffffffffffffffffffffffffffffffff168152602001908152602001600020819055506114c0565b61143f83826124e490919063ffffffff16565b600260003373ffffffffffffffffffffffffffffffffffffffff1673ffffffffffffffffffffffffffffffffffffffff16815260200190815260200160002060008673ffffffffffffffffffffffffffffffffffffffff1673ffffffffffffffffffffffffffffffffffffffff168152602001908152602001600020819055505b8373ffffffffffffffffffffffffffffffffffffffff163373ffffffffffffffffffffffffffffffffffffffff167f8c5be1e5ebec7d5bd14f71427d1e84f3dd0314c0f7b2291e5b200ac8c7c3b925600260003373ffffffffffffffffffffffffffffffffffffffff1673ffffffffffffffffffffffffffffffffffffffff16815260200190815260200160002060008873ffffffffffffffffffffffffffffffffffffffff1673ffffffffffffffffffffffffffffffffffffffff168152602001908152602001600020546040518082815260200191505060405180910390a3600191505092915050565b60008060008373ffffffffffffffffffffffffffffffffffffffff1673ffffffffffffffffffffffffffffffffffffffff168152602001908152602001600020549050919050565b6000600b60003373ffffffffffffffffffffffffffffffffffffffff1673ffffffffffffffffffffffffffffffffffffffff16815260200190815260200160002060000154905090565b6000600360009054906101000a900473ffffffffffffffffffffffffffffffffffffffff1673ffffffffffffffffffffffffffffffffffffffff163373ffffffffffffffffffffffffffffffffffffffff1614151561169c57600080fd5b600360149054906101000a900460ff161515156116b857600080fd5b6001600360146101000a81548160ff0219169083151502179055507fae5184fba832cb2b1f702aca6117b8d265eaf03ad33eb133f19dde0f5920fa0860405160405180910390a16001905090565b6000600754905090565b600360009054906101000a900473ffffffffffffffffffffffffffffffffffffffff1681565b600a5481565b6040805190810160405280600381526020017f53474c000000000000000000000000000000000000000000000000000000000081525081565b600360009054906101000a900473ffffffffffffffffffffffffffffffffffffffff1673ffffffffffffffffffffffffffffffffffffffff163373ffffffffffffffffffffffffffffffffffffffff161415156117d157600080fd5b600360009054906101000a900473ffffffffffffffffffffffffffffffffffffffff1673ffffffffffffffffffffffffffffffffffffffff166108fc3073ffffffffffffffffffffffffffffffffffffffff16319081150290604051600060405180830381858888f19350505050151561184757fe5b565b60055481565b6000806000600360009054906101000a900473ffffffffffffffffffffffffffffffffffffffff1673ffffffffffffffffffffffffffffffffffffffff163373ffffffffffffffffffffffffffffffffffffffff161415156118b057600080fd5b600954421115156118c057600080fd5b6118d5600954426124e490919063ffffffff16565b92506000831115156118e357fe5b6118ef83600a54612519565b915061191d600860009054906101000a900473ffffffffffffffffffffffffffffffffffffffff1683610fcf565b905080151561192b57600080fd5b42600981905550505050565b60008073ffffffffffffffffffffffffffffffffffffffff168373ffffffffffffffffffffffffffffffffffffffff161415151561197457600080fd5b6000803373ffffffffffffffffffffffffffffffffffffffff1673ffffffffffffffffffffffffffffffffffffffff1681526020019081526020016000205482111515156119c157600080fd5b611a12826000803373ffffffffffffffffffffffffffffffffffffffff1673ffffffffffffffffffffffffffffffffffffffff168152602001908152602001600020546124e490919063ffffffff16565b6000803373ffffffffffffffffffffffffffffffffffffffff1673ffffffffffffffffffffffffffffffffffffffff16815260200190815260200160002081905550611aa5826000808673ffffffffffffffffffffffffffffffffffffffff1673ffffffffffffffffffffffffffffffffffffffff168152602001908152602001600020546124fd90919063ffffffff16565b6000808573ffffffffffffffffffffffffffffffffffffffff1673ffffffffffffffffffffffffffffffffffffffff168152602001908152602001600020819055508273ffffffffffffffffffffffffffffffffffffffff163373ffffffffffffffffffffffffffffffffffffffff167fddf252ad1be2c89b69c2b068fc378daa952ba7f163c4a11628f55a4df523b3ef846040518082815260200191505060405180910390a36001905092915050565b60045481565b611b6581612536565b1515611b7057600080fd5b50565b600080600085600b60003373ffffffffffffffffffffffffffffffffffffffff1673ffffffffffffffffffffffffffffffffffffffff16815260200190815260200160002060000154111515611bc857600080fd5b600b60003373ffffffffffffffffffffffffffffffffffffffff1673ffffffffffffffffffffffffffffffffffffffff1681526020019081526020016000206001015442111515611c1857600080fd5b611c6d600b60003373ffffffffffffffffffffffffffffffffffffffff1673ffffffffffffffffffffffffffffffffffffffff16815260200190815260200160002060010154426124e490919063ffffffff16565b9150611c7982876127dd565b9050600b60003373ffffffffffffffffffffffffffffffffffffffff1673ffffffffffffffffffffffffffffffffffffffff168152602001908152602001600020600001546000803373ffffffffffffffffffffffffffffffffffffffff1673ffffffffffffffffffffffffffffffffffffffff16815260200190815260200160002060008282540192505081905550600b60003373ffffffffffffffffffffffffffffffffffffffff1673ffffffffffffffffffffffffffffffffffffffff168152602001908152602001600020600001546007600082825403925050819055506000600b60003373ffffffffffffffffffffffffffffffffffffffff1673ffffffffffffffffffffffffffffffffffffffff16815260200190815260200160002060030160009054906101000a900473ffffffffffffffffffffffffffffffffffffffff1673ffffffffffffffffffffffffffffffffffffffff161115611e7f57611df933611df460028461296a90919063ffffffff16565b610fcf565b50611e79600b60003373ffffffffffffffffffffffffffffffffffffffff1673ffffffffffffffffffffffffffffffffffffffff16815260200190815260200160002060030160009054906101000a900473ffffffffffffffffffffffffffffffffffffffff16611e7460028461296a90919063ffffffff16565b610fcf565b50611e8b565b611e893382610fcf565b505b600b60003373ffffffffffffffffffffffffffffffffffffffff1673ffffffffffffffffffffffffffffffffffffffff16815260200190815260200160002060030160009054906101000a900473ffffffffffffffffffffffffffffffffffffffff1673ffffffffffffffffffffffffffffffffffffffff163373ffffffffffffffffffffffffffffffffffffffff167fd9c1851563fe01face9bb04f31b9adad0fb3db6ed6f78845f9c04eadedb494d2600b60003373ffffffffffffffffffffffffffffffffffffffff1673ffffffffffffffffffffffffffffffffffffffff1681526020019081526020016000206000015484604051808381526020018281526020019250505060405180910390a36000600b60003373ffffffffffffffffffffffffffffffffffffffff1673ffffffffffffffffffffffffffffffffffffffff168152602001908152602001600020600001819055506000600b60003373ffffffffffffffffffffffffffffffffffffffff1673ffffffffffffffffffffffffffffffffffffffff168152602001908152602001600020600101819055506000600b60003373ffffffffffffffffffffffffffffffffffffffff1673ffffffffffffffffffffffffffffffffffffffff168152602001908152602001600020600201819055506000600b60003373ffffffffffffffffffffffffffffffffffffffff1673ffffffffffffffffffffffffffffffffffffffff16815260200190815260200160002060030160006101000a81548173ffffffffffffffffffffffffffffffffffffffff021916908373ffffffffffffffffffffffffffffffffffffffff1602179055506001925050509392505050565b600061219482600260003373ffffffffffffffffffffffffffffffffffffffff1673ffffffffffffffffffffffffffffffffffffffff16815260200190815260200160002060008673ffffffffffffffffffffffffffffffffffffffff1673ffffffffffffffffffffffffffffffffffffffff168152602001908152602001600020546124fd90919063ffffffff16565b600260003373ffffffffffffffffffffffffffffffffffffffff1673ffffffffffffffffffffffffffffffffffffffff16815260200190815260200160002060008573ffffffffffffffffffffffffffffffffffffffff1673ffffffffffffffffffffffffffffffffffffffff168152602001908152602001600020819055508273ffffffffffffffffffffffffffffffffffffffff163373ffffffffffffffffffffffffffffffffffffffff167f8c5be1e5ebec7d5bd14f71427d1e84f3dd0314c0f7b2291e5b200ac8c7c3b925600260003373ffffffffffffffffffffffffffffffffffffffff1673ffffffffffffffffffffffffffffffffffffffff16815260200190815260200160002060008773ffffffffffffffffffffffffffffffffffffffff1673ffffffffffffffffffffffffffffffffffffffff168152602001908152602001600020546040518082815260200191505060405180910390a36001905092915050565b60075481565b6000600260008473ffffffffffffffffffffffffffffffffffffffff1673ffffffffffffffffffffffffffffffffffffffff16815260200190815260200160002060008373ffffffffffffffffffffffffffffffffffffffff1673ffffffffffffffffffffffffffffffffffffffff16815260200190815260200160002054905092915050565b600360009054906101000a900473ffffffffffffffffffffffffffffffffffffffff1673ffffffffffffffffffffffffffffffffffffffff163373ffffffffffffffffffffffffffffffffffffffff161415156123e857600080fd5b600073ffffffffffffffffffffffffffffffffffffffff168173ffffffffffffffffffffffffffffffffffffffff161415151561242457600080fd5b8073ffffffffffffffffffffffffffffffffffffffff16600360009054906101000a900473ffffffffffffffffffffffffffffffffffffffff1673ffffffffffffffffffffffffffffffffffffffff167f8be0079c531659141344cd1fd0a4f28419497f9722a3daafe3b4186f6b6457e060405160405180910390a380600360006101000a81548173ffffffffffffffffffffffffffffffffffffffff021916908373ffffffffffffffffffffffffffffffffffffffff16021790555050565b60008282111515156124f257fe5b818303905092915050565b6000818301905082811015151561251057fe5b80905092915050565b600061252e828461298090919063ffffffff16565b905092915050565b60008060003373ffffffffffffffffffffffffffffffffffffffff1673ffffffffffffffffffffffffffffffffffffffff16815260200190815260200160002054821115151561258557600080fd5b6125d6826000803373ffffffffffffffffffffffffffffffffffffffff1673ffffffffffffffffffffffffffffffffffffffff168152602001908152602001600020546124e490919063ffffffff16565b6000803373ffffffffffffffffffffffffffffffffffffffff1673ffffffffffffffffffffffffffffffffffffffff1681526020019081526020016000208190555081600b60003373ffffffffffffffffffffffffffffffffffffffff1673ffffffffffffffffffffffffffffffffffffffff168152602001908152602001600020600001819055508160076000828254019250508190555061268082600754601260ff166129b8565b600b60003373ffffffffffffffffffffffffffffffffffffffff1673ffffffffffffffffffffffffffffffffffffffff1681526020019081526020016000206002018190555042600b60003373ffffffffffffffffffffffffffffffffffffffff1673ffffffffffffffffffffffffffffffffffffffff16815260200190815260200160002060010181905550600b60003373ffffffffffffffffffffffffffffffffffffffff1673ffffffffffffffffffffffffffffffffffffffff16815260200190815260200160002060030160009054906101000a900473ffffffffffffffffffffffffffffffffffffffff1673ffffffffffffffffffffffffffffffffffffffff163373ffffffffffffffffffffffffffffffffffffffff167f99039fcf0a98f484616c5196ee8b2ecfa971babf0b519848289ea4db381f85f7846040518082815260200191505060405180910390a360019050919050565b60008060008060008060008062015180965060009250868a111561295a5761280c89600754601260ff166129b8565b955061285f89600b60003373ffffffffffffffffffffffffffffffffffffffff1673ffffffffffffffffffffffffffffffffffffffff16815260200190815260200160002060000154601260ff166129b8565b91506128b6600b60003373ffffffffffffffffffffffffffffffffffffffff1673ffffffffffffffffffffffffffffffffffffffff168152602001908152602001600020600201548361298090919063ffffffff16565b90506128d76128ce87836124fd90919063ffffffff16565b600260006129b8565b94506128ee8560065461298090919063ffffffff16565b935061290b670de0b6b3a76400008561296a90919063ffffffff16565b9350612921601e8861298090919063ffffffff16565b8a111561294c5761294561293f601e8961298090919063ffffffff16565b85612519565b9250612959565b6129568a85612519565b92505b5b8297505050505050505092915050565b6000818381151561297757fe5b04905092915050565b60008083141561299357600090506129b2565b81830290508183828115156129a457fe5b041415156129ae57fe5b8090505b92915050565b6000806129d460018401600a0a8661298090919063ffffffff16565b9450600a60056129ed868861296a90919063ffffffff16565b018115156129f757fe5b0490508091505093925050505600a165627a7a72305820b136f347dfa067f4271d04b7307f8d972f46c60aba776d33b5fe5f15f46c7f360029",
  "source": "pragma solidity ^0.4.18;\n\n/**************************************************************\n * @title Sigil Token Contract\n * @file Sigil.sol\n * @author Jared Downing, Kane Thomas, Sigil LLC\n * @version 1.0\n *\n * @section LICENSE\n *\n * Contact for licensing details. All rights reserved.\n *\n * @section DESCRIPTION\n *\n * This is an ERC20-based token with staking functionality.\n *\n *************************************************************/\n//////////////////////////////////\n/// OpenZeppelin library imports\n//////////////////////////////////\n\n///* Truffle format\n//import 'zeppelin-solidity/contracts/token/ERC20/MintableToken.sol';\nimport 'openzeppelin-solidity/contracts/token/ERC20/MintableToken.sol';\nimport 'openzeppelin-solidity/contracts/ownership/HasNoEther.sol';\n\n\n\ncontract Sigil is MintableToken, HasNoEther {\n    // Using libraries\n    using SafeMath for uint;\n\n    //////////////////////////////////////////////////\n    /// State Variables for the Sigil token contract\n    //////////////////////////////////////////////////\n\n    //////////////////////\n    // ERC20 token state\n    //////////////////////\n\n    /**\n    These state vars are handled in the OpenZeppelin libraries;\n    we display them here for the developer's information.\n    ***\n    // ERC20Basic - Store account balances\n    mapping (address => uint256) public balances;\n\n    // StandardToken - Owner of account approves transfer of an amount to another account\n    mapping (address => mapping (address => uint256)) public allowed;\n\n    //\n    uint256 public totalSupply;\n    */\n\n    //////////////////////\n    // Human token state\n    //////////////////////\n    string public constant name = \"Sigil\";\n    string public constant symbol = \"SGL\";\n    uint8 public constant  decimals = 18;\n\n    ///////////////////////////////////////////////////////////\n    // State vars for custom staking and budget functionality\n    ///////////////////////////////////////////////////////////\n\n\n\n    // Owner last minted time\n    uint public ownerTimeLastMinted;\n    // Owner minted tokens per second\n    uint public ownerMintRate;\n\n\n    /// Stake minting\n    // Minted tokens per second for all stakers\n    uint private globalMintRate;\n    // Total tokens currently staked\n    uint public totalSigilStaked;\n\n    // Project pool\n    address public pool;\n    // Last time pool claimed\n    uint poolTimeLastMinted;\n    // Pool minted tokens per second\n    uint public poolMintRate;\n\n    // struct that will hold user stake\n    struct TokenStakeData {\n        uint initialStakeBalance;\n        uint initialStakeTime;\n        uint initialStakePercentage;\n        address stakeSplitAddress;\n    }\n\n    // Track all tokens staked\n    mapping (address => TokenStakeData) public stakeBalances;\n\n    // Fire a loggable event when tokens are staked\n    event Stake(address indexed staker, address indexed stakeSplitAddress, uint256 value);\n\n    // Fire a loggable event when staked tokens are vested\n    event Vest(address indexed vester, address indexed stakeSplitAddress, uint256 stakedAmount, uint256 stakingGains);\n\n    //////////////////////////////////////////////////\n    /// Begin Sigil token functionality\n    //////////////////////////////////////////////////\n\n    /// @dev Sigil token constructor\n    constructor() public {\n        // Define owner\n        owner = msg.sender;\n\n        // Define initial owner supply. (ether here is used only to get the decimals right)\n        uint _initOwnerSupply = 1650000 ether;\n        // One-time bulk mint given to owner\n        bool _success = mint(msg.sender, _initOwnerSupply);\n        // Abort if initial minting failed for whatever reason\n        require(_success);\n\n        ////////////////////////////////////\n        // Set up state minting variables\n        ////////////////////////////////////\n\n        // Set last minted to current block.timestamp ('now')\n        ownerTimeLastMinted = now;\n\n        // 4500 minted tokens per day, 86400 seconds in a day\n        ownerMintRate = calculateFraction(4500, 86400, decimals);\n\n        // 4,900,000 targeted minted tokens per year via staking; 31,536,000 seconds per year\n        globalMintRate = calculateFraction(4900000, 31536000, decimals);\n    }\n\n    /// @dev staking function which allows users to stake an amount of tokens to gain interest for up to 30 days\n    function stakeSigil(uint _stakeAmount) external {\n        // Require that tokens are staked successfully\n        require(stake(_stakeAmount));\n    }\n\n    /////////////\n    // Staking\n    /////////////\n\n    /// @dev stake function reduces the user's total available balance. totalSupply is unaffected\n    /// @param _value determines how many tokens a user wants to stake\n    function stake(uint256 _value) private returns (bool success) {\n        /// Sanity Checks:\n        // You can only stake as many tokens as you have\n        require(_value <= balances[msg.sender]);\n        // You can only stake tokens if you have not already staked tokens\n        //require(stakeBalances[msg.sender].initialStakeBalance == 0);\n\n        // Subtract stake amount from regular token balance\n        balances[msg.sender] = balances[msg.sender].sub(_value);\n\n        // Add stake amount to staked balance\n        stakeBalances[msg.sender].initialStakeBalance = _value;\n\n        // Increment the global staked tokens value\n        totalSigilStaked += _value;\n\n        /// Determine percentage of global stake\n        stakeBalances[msg.sender].initialStakePercentage = calculateFraction(_value, totalSigilStaked, decimals);\n\n        // Save the time that the stake started\n        stakeBalances[msg.sender].initialStakeTime = now;\n\n        // Fire an event to tell the world of the newly staked tokens\n        Stake(msg.sender, stakeBalances[msg.sender].stakeSplitAddress, _value);\n\n        return true;\n    }\n\n    /// @dev allows users to reclaim any staked tokens\n    /// @return bool on success\n    function unstake(uint256 amount, bytes data) external returns (bool success) {\n        /// Sanity checks:\n        // require that there was some amount vested\n        require(stakeBalances[msg.sender].initialStakeBalance > amount);\n        // require that time has elapsed\n        require(now > stakeBalances[msg.sender].initialStakeTime);\n\n        // Calculate the time elapsed since the tokens were originally staked\n        uint _timePassedSinceStake = now.sub(stakeBalances[msg.sender].initialStakeTime);\n\n        // Calculate tokens to mint\n        uint _tokensToMint = calculateStakeGains(_timePassedSinceStake, amount);\n\n        // Add the original stake back to the user's balance\n        balances[msg.sender] += stakeBalances[msg.sender].initialStakeBalance;\n\n        // Subtract stake balance from totalSigilStaked\n        totalSigilStaked -= stakeBalances[msg.sender].initialStakeBalance;\n\n        // Mint the new tokens; the new tokens are added to the user's balance\n        if (stakeBalances[msg.sender].stakeSplitAddress > 0)\n        {\n            // Splitting stake, so mint half to sender and half to stakeSplitAddress\n            mint(msg.sender, _tokensToMint.div(2));\n            mint(stakeBalances[msg.sender].stakeSplitAddress, _tokensToMint.div(2));\n        } else {\n            // Not spliting stake; mint all new tokens and give them to msg.sender\n            mint(msg.sender, _tokensToMint);\n        }\n\n        // Fire an event to tell the world of the newly vested tokens\n        Vest(msg.sender, stakeBalances[msg.sender].stakeSplitAddress, stakeBalances[msg.sender].initialStakeBalance, _tokensToMint);\n\n        // Clear out stored data from mapping\n        stakeBalances[msg.sender].initialStakeBalance = 0;\n        stakeBalances[msg.sender].initialStakeTime = 0;\n        stakeBalances[msg.sender].initialStakePercentage = 0;\n        stakeBalances[msg.sender].stakeSplitAddress = 0;\n\n        return true;\n    }\n\n    /// @dev Helper function to claimStake that modularizes the minting via staking calculation\n    function calculateStakeGains(uint _timePassedSinceStake, uint _amount) view private returns (uint mintTotal) {\n        // Store seconds in a day (need it in variable to use SafeMath)\n        uint _secondsPerDay = 86400;\n        uint _finalStakePercentage;     // store our stake percentage at the time of stake claim\n        uint _stakePercentageAverage;   // store our calculated average minting rate ((initial+final) / 2)\n        uint _finalMintRate;            // store our calculated final mint rate (in Sigil-per-second)\n        uint _tokensToMint = 0;         // store number of new tokens to be minted\n        uint _stakeWithdrawalPercentageAmount;\n        uint _initialWithdrawalPercentageAmount;\n\n        // Determine the amount to be newly minted upon vesting, if any\n        if (_timePassedSinceStake > _secondsPerDay) {\n\n            /// We've passed the minimum staking time; calculate minting rate average ((initialRate + finalRate) / 2)\n\n            // First, calculate our final stake percentage based upon the total amount of Sigil staked\n            _finalStakePercentage = calculateFraction(_amount, totalSigilStaked, decimals);\n\n            //Calculates the percentage of the initial stake that the amount they are withdrawing takes up\n            _stakeWithdrawalPercentageAmount = calculateFraction(_amount, stakeBalances[msg.sender].initialStakeBalance, decimals);\n\n            //Calculates the amount that the amount th based on the withdrawal amount\n            _initialWithdrawalPercentageAmount = _stakeWithdrawalPercentageAmount.mul(stakeBalances[msg.sender].initialStakePercentage);\n\n            // Second, calculate average of initial and final stake percentage\n            _stakePercentageAverage = calculateFraction((_initialWithdrawalPercentageAmount.add(_finalStakePercentage)), 2, 0);\n\n            // Finally, calculate our final mint rate (in Sigil-per-second)\n            _finalMintRate = globalMintRate.mul(_stakePercentageAverage);\n            _finalMintRate = _finalMintRate.div(1 ether);\n\n            // Tokens were staked for enough time to mint new tokens; determine how many\n            if (_timePassedSinceStake > _secondsPerDay.mul(30)) {\n                // Tokens were staked for the maximum amount of time (30 days)\n                _tokensToMint = calculateMintTotal(_secondsPerDay.mul(30), _finalMintRate);\n            } else {\n                // Tokens were staked for a mintable amount of time, but less than the 30-day max\n                _tokensToMint = calculateMintTotal(_timePassedSinceStake, _finalMintRate);\n            }\n        }\n\n        // Return the amount of new tokens to be minted\n        return _tokensToMint;\n\n    }\n\n    function totalStaked() view public returns (uint ){\n\n      return totalSigilStaked;\n    }\n\n    /// @dev Allows user to check their staked balance\n    function getStakedBalance() view external returns (uint stakedBalance) {\n        return stakeBalances[msg.sender].initialStakeBalance;\n    }\n\n\n    /////////////\n    // Sigil Owner Claiming\n    /////////////\n\n    /// @dev allows contract owner to claim their mint\n    function ownerClaim() external onlyOwner {\n        // Sanity check: ensure that we didn't travel back in time\n        require(now > ownerTimeLastMinted);\n\n        uint _timePassedSinceLastMint;\n        uint _tokenMintCount;\n        bool _mintingSuccess;\n\n        // Calculate the number of seconds that have passed since the owner last took a claim\n        _timePassedSinceLastMint = now.sub(ownerTimeLastMinted);\n\n        // Sanity check: ensure that some time has passed since the owner last claimed\n        assert(_timePassedSinceLastMint > 0);\n\n        // Determine the token mint amount, determined from the number of seconds passed and the ownerMintRate\n        _tokenMintCount = calculateMintTotal(_timePassedSinceLastMint, ownerMintRate);\n\n        // Mint the owner's tokens; this also increases totalSupply\n        _mintingSuccess = mint(msg.sender, _tokenMintCount);\n\n        // Sanity check: ensure that the minting was successful\n        require(_mintingSuccess);\n\n        // New minting was a success! Set last time minted to current block.timestamp (now)\n        ownerTimeLastMinted = now;\n    }\n\n\n    ////////////////////////////////\n    // Sigil Pool distribution\n    ////////////////////////////////\n\n    // @dev allows distribution of Sigil to most upvoted causes, which is handled by a seperate contract\n    function poolClaim() external onlyOwner {\n        // Sanity check: ensure that we didn't travel back in time\n        require(now > poolTimeLastMinted);\n\n        uint _timePassedSinceLastMint;\n        uint _tokenMintCount;\n        bool _mintingSuccess;\n\n        // Calculate the number of seconds that have passed since the owner last took a claim\n        _timePassedSinceLastMint = now.sub(poolTimeLastMinted);\n\n        // Sanity check: ensure that some time has passed since the owner last claimed\n        assert(_timePassedSinceLastMint > 0);\n\n        // Determine the token mint amount, determined from the number of seconds passed and the ownerMintRate\n        _tokenMintCount = calculateMintTotal(_timePassedSinceLastMint, poolMintRate);\n\n        // Mint the owner's tokens; this also increases totalSupply\n        _mintingSuccess = mint(pool, _tokenMintCount);\n\n        // Sanity check: ensure that the minting was successful\n        require(_mintingSuccess);\n\n        // New minting was a success! Set last time minted to current block.timestamp (now)\n        poolTimeLastMinted = now;\n    }\n\n    function setPool(address _newAddress) public onlyOwner {\n\n      pool = _newAddress;\n    }\n\n\n    /// @dev calculateFraction allows us to better handle the Solidity ugliness of not having decimals as a native type\n    /// @param _numerator is the top part of the fraction we are calculating\n    /// @param _denominator is the bottom part of the fraction we are calculating\n    /// @param _precision tells the function how many significant digits to calculate out to\n    /// @return quotient returns the result of our fraction calculation\n    function calculateFraction(uint _numerator, uint _denominator, uint _precision) pure private returns(uint quotient)\n    {\n        // Take passed value and expand it to the required precision\n        _numerator = _numerator.mul(10 ** (_precision + 1));\n        // handle last-digit rounding\n        uint _quotient = ((_numerator.div(_denominator)) + 5) / 10;\n        return (_quotient);\n    }\n\n    /// @dev Determines mint total based upon how many seconds have passed\n    /// @param _timeInSeconds takes the time that has elapsed since the last minting\n    /// @return uint with the calculated number of new tokens to mint\n    function calculateMintTotal(uint _timeInSeconds, uint _mintRate) pure private returns(uint mintAmount)\n    {\n        // Calculates the amount of tokens to mint based upon the number of seconds passed\n        return(_timeInSeconds.mul(_mintRate));\n    }\n\n}\n",
  "sourcePath": "/Users/jareddowning/Desktop/SigilCoin/SigilDevReact/contracts/Sigil.sol",
  "compiler": {
    "name": "solc",
    "version": "0.4.24+commit.e67f0147.Emscripten.clang"
  },
  "schemaVersion": "2.0.0",
  "updatedAt": "2018-05-28T22:28:44.884Z"
}