{
  "contractName": "Sigil",
  "abi": [
    {
      "constant": true,
      "inputs": [],
      "name": "mintingFinished",
      "outputs": [
        {
          "name": "",
          "type": "bool"
        }
      ],
      "payable": false,
      "stateMutability": "view",
      "type": "function"
    },
    {
      "constant": true,
      "inputs": [],
      "name": "name",
      "outputs": [
        {
          "name": "",
          "type": "string"
        }
      ],
      "payable": false,
      "stateMutability": "view",
      "type": "function"
    },
    {
      "constant": true,
      "inputs": [],
      "name": "globalMintRate",
      "outputs": [
        {
          "name": "",
          "type": "uint256"
        }
      ],
      "payable": false,
      "stateMutability": "view",
      "type": "function"
    },
    {
      "constant": false,
      "inputs": [
        {
          "name": "_spender",
          "type": "address"
        },
        {
          "name": "_value",
          "type": "uint256"
        }
      ],
      "name": "approve",
      "outputs": [
        {
          "name": "",
          "type": "bool"
        }
      ],
      "payable": false,
      "stateMutability": "nonpayable",
      "type": "function"
    },
    {
      "constant": true,
      "inputs": [],
      "name": "pool",
      "outputs": [
        {
          "name": "",
          "type": "address"
        }
      ],
      "payable": false,
      "stateMutability": "view",
      "type": "function"
    },
    {
      "constant": true,
      "inputs": [],
      "name": "totalSupply",
      "outputs": [
        {
          "name": "",
          "type": "uint256"
        }
      ],
      "payable": false,
      "stateMutability": "view",
      "type": "function"
    },
    {
      "constant": false,
      "inputs": [
        {
          "name": "_from",
          "type": "address"
        },
        {
          "name": "_to",
          "type": "address"
        },
        {
          "name": "_value",
          "type": "uint256"
        }
      ],
      "name": "transferFrom",
      "outputs": [
        {
          "name": "",
          "type": "bool"
        }
      ],
      "payable": false,
      "stateMutability": "nonpayable",
      "type": "function"
    },
    {
      "constant": true,
      "inputs": [],
      "name": "decimals",
      "outputs": [
        {
          "name": "",
          "type": "uint8"
        }
      ],
      "payable": false,
      "stateMutability": "view",
      "type": "function"
    },
    {
      "constant": true,
      "inputs": [
        {
          "name": "",
          "type": "address"
        }
      ],
      "name": "stakeBalances",
      "outputs": [
        {
          "name": "initialStakeBalance",
          "type": "uint256"
        },
        {
          "name": "initialStakeTime",
          "type": "uint256"
        },
        {
          "name": "initialStakePercentage",
          "type": "uint256"
        }
      ],
      "payable": false,
      "stateMutability": "view",
      "type": "function"
    },
    {
      "constant": true,
      "inputs": [],
      "name": "lastYearTotalSupply",
      "outputs": [
        {
          "name": "",
          "type": "uint256"
        }
      ],
      "payable": false,
      "stateMutability": "view",
      "type": "function"
    },
    {
      "constant": false,
      "inputs": [
        {
          "name": "_spender",
          "type": "address"
        },
        {
          "name": "_subtractedValue",
          "type": "uint256"
        }
      ],
      "name": "decreaseApproval",
      "outputs": [
        {
          "name": "",
          "type": "bool"
        }
      ],
      "payable": false,
      "stateMutability": "nonpayable",
      "type": "function"
    },
    {
      "constant": true,
      "inputs": [],
      "name": "lastInflationUpdate",
      "outputs": [
        {
          "name": "",
          "type": "uint256"
        }
      ],
      "payable": false,
      "stateMutability": "view",
      "type": "function"
    },
    {
      "constant": true,
      "inputs": [
        {
          "name": "_owner",
          "type": "address"
        }
      ],
      "name": "balanceOf",
      "outputs": [
        {
          "name": "",
          "type": "uint256"
        }
      ],
      "payable": false,
      "stateMutability": "view",
      "type": "function"
    },
    {
      "constant": false,
      "inputs": [],
      "name": "finishMinting",
      "outputs": [
        {
          "name": "",
          "type": "bool"
        }
      ],
      "payable": false,
      "stateMutability": "nonpayable",
      "type": "function"
    },
    {
      "constant": true,
      "inputs": [],
      "name": "owner",
      "outputs": [
        {
          "name": "",
          "type": "address"
        }
      ],
      "payable": false,
      "stateMutability": "view",
      "type": "function"
    },
    {
      "constant": true,
      "inputs": [],
      "name": "poolMintRate",
      "outputs": [
        {
          "name": "",
          "type": "uint256"
        }
      ],
      "payable": false,
      "stateMutability": "view",
      "type": "function"
    },
    {
      "constant": true,
      "inputs": [],
      "name": "symbol",
      "outputs": [
        {
          "name": "",
          "type": "string"
        }
      ],
      "payable": false,
      "stateMutability": "view",
      "type": "function"
    },
    {
      "constant": false,
      "inputs": [],
      "name": "reclaimEther",
      "outputs": [],
      "payable": false,
      "stateMutability": "nonpayable",
      "type": "function"
    },
    {
      "constant": true,
      "inputs": [],
      "name": "ownerMintRate",
      "outputs": [
        {
          "name": "",
          "type": "uint256"
        }
      ],
      "payable": false,
      "stateMutability": "view",
      "type": "function"
    },
    {
      "constant": false,
      "inputs": [
        {
          "name": "_to",
          "type": "address"
        },
        {
          "name": "_value",
          "type": "uint256"
        }
      ],
      "name": "transfer",
      "outputs": [
        {
          "name": "",
          "type": "bool"
        }
      ],
      "payable": false,
      "stateMutability": "nonpayable",
      "type": "function"
    },
    {
      "constant": true,
      "inputs": [],
      "name": "ownerTimeLastMinted",
      "outputs": [
        {
          "name": "",
          "type": "uint256"
        }
      ],
      "payable": false,
      "stateMutability": "view",
      "type": "function"
    },
    {
      "constant": false,
      "inputs": [
        {
          "name": "_spender",
          "type": "address"
        },
        {
          "name": "_addedValue",
          "type": "uint256"
        }
      ],
      "name": "increaseApproval",
      "outputs": [
        {
          "name": "",
          "type": "bool"
        }
      ],
      "payable": false,
      "stateMutability": "nonpayable",
      "type": "function"
    },
    {
      "constant": true,
      "inputs": [],
      "name": "totalSigilStaked",
      "outputs": [
        {
          "name": "",
          "type": "uint256"
        }
      ],
      "payable": false,
      "stateMutability": "view",
      "type": "function"
    },
    {
      "constant": true,
      "inputs": [
        {
          "name": "_owner",
          "type": "address"
        },
        {
          "name": "_spender",
          "type": "address"
        }
      ],
      "name": "allowance",
      "outputs": [
        {
          "name": "",
          "type": "uint256"
        }
      ],
      "payable": false,
      "stateMutability": "view",
      "type": "function"
    },
    {
      "constant": false,
      "inputs": [
        {
          "name": "newOwner",
          "type": "address"
        }
      ],
      "name": "transferOwnership",
      "outputs": [],
      "payable": false,
      "stateMutability": "nonpayable",
      "type": "function"
    },
    {
      "inputs": [],
      "payable": false,
      "stateMutability": "nonpayable",
      "type": "constructor"
    },
    {
      "payable": false,
      "stateMutability": "nonpayable",
      "type": "fallback"
    },
    {
      "anonymous": false,
      "inputs": [
        {
          "indexed": true,
          "name": "staker",
          "type": "address"
        },
        {
          "indexed": false,
          "name": "value",
          "type": "uint256"
        }
      ],
      "name": "Stake",
      "type": "event"
    },
    {
      "anonymous": false,
      "inputs": [
        {
          "indexed": true,
          "name": "vester",
          "type": "address"
        },
        {
          "indexed": false,
          "name": "stakedAmount",
          "type": "uint256"
        },
        {
          "indexed": false,
          "name": "stakingGains",
          "type": "uint256"
        }
      ],
      "name": "Vest",
      "type": "event"
    },
    {
      "anonymous": false,
      "inputs": [
        {
          "indexed": true,
          "name": "to",
          "type": "address"
        },
        {
          "indexed": false,
          "name": "amount",
          "type": "uint256"
        }
      ],
      "name": "Mint",
      "type": "event"
    },
    {
      "anonymous": false,
      "inputs": [],
      "name": "MintFinished",
      "type": "event"
    },
    {
      "anonymous": false,
      "inputs": [
        {
          "indexed": true,
          "name": "previousOwner",
          "type": "address"
        },
        {
          "indexed": true,
          "name": "newOwner",
          "type": "address"
        }
      ],
      "name": "OwnershipTransferred",
      "type": "event"
    },
    {
      "anonymous": false,
      "inputs": [
        {
          "indexed": true,
          "name": "owner",
          "type": "address"
        },
        {
          "indexed": true,
          "name": "spender",
          "type": "address"
        },
        {
          "indexed": false,
          "name": "value",
          "type": "uint256"
        }
      ],
      "name": "Approval",
      "type": "event"
    },
    {
      "anonymous": false,
      "inputs": [
        {
          "indexed": true,
          "name": "from",
          "type": "address"
        },
        {
          "indexed": true,
          "name": "to",
          "type": "address"
        },
        {
          "indexed": false,
          "name": "value",
          "type": "uint256"
        }
      ],
      "name": "Transfer",
      "type": "event"
    },
    {
      "constant": false,
      "inputs": [],
      "name": "updateInflationRate",
      "outputs": [],
      "payable": false,
      "stateMutability": "nonpayable",
      "type": "function"
    },
    {
      "constant": false,
      "inputs": [
        {
          "name": "_stakeAmount",
          "type": "uint256"
        }
      ],
      "name": "stakeSigil",
      "outputs": [],
      "payable": false,
      "stateMutability": "nonpayable",
      "type": "function"
    },
    {
      "constant": false,
      "inputs": [
        {
          "name": "_now",
          "type": "uint256"
        }
      ],
      "name": "getStakingGains",
      "outputs": [
        {
          "name": "",
          "type": "uint256"
        }
      ],
      "payable": false,
      "stateMutability": "nonpayable",
      "type": "function"
    },
    {
      "constant": false,
      "inputs": [],
      "name": "unstake",
      "outputs": [
        {
          "name": "",
          "type": "bool"
        }
      ],
      "payable": false,
      "stateMutability": "nonpayable",
      "type": "function"
    },
    {
      "constant": false,
      "inputs": [],
      "name": "setTotalStakingHistory",
      "outputs": [],
      "payable": false,
      "stateMutability": "nonpayable",
      "type": "function"
    },
    {
      "constant": true,
      "inputs": [],
      "name": "getStakedBalance",
      "outputs": [
        {
          "name": "stakedBalance",
          "type": "uint256"
        }
      ],
      "payable": false,
      "stateMutability": "view",
      "type": "function"
    },
    {
      "constant": false,
      "inputs": [],
      "name": "ownerClaim",
      "outputs": [],
      "payable": false,
      "stateMutability": "nonpayable",
      "type": "function"
    },
    {
      "constant": false,
      "inputs": [],
      "name": "poolIssue",
      "outputs": [],
      "payable": false,
      "stateMutability": "nonpayable",
      "type": "function"
    },
    {
      "constant": false,
      "inputs": [
        {
          "name": "_newAddress",
          "type": "address"
        }
      ],
      "name": "setPool",
      "outputs": [],
      "payable": false,
      "stateMutability": "nonpayable",
      "type": "function"
    }
  ],
  "bytecode": "0x60806040526000600360146101000a81548160ff0219169083151502179055506046600f55600560105560196011556103e86012553480156200004157600080fd5b5060008033600360006101000a81548173ffffffffffffffffffffffffffffffffffffffff021916908373ffffffffffffffffffffffffffffffffffffffff1602179055506000341415156200009657600080fd5b33600360006101000a81548173ffffffffffffffffffffffffffffffffffffffff021916908373ffffffffffffffffffffffffffffffffffffffff1602179055506a069e10de76676d080000009150620001003383620002af640100000000026401000000009004565b90508015156200010f57600080fd5b426007819055504260058190555062000165606462000148600f54856200043d6401000000000262002aaf179091906401000000009004565b620004796401000000000262002ae7179091906401000000009004565b600c81905550620001b3606462000196601054856200043d6401000000000262002aaf179091906401000000009004565b620004796401000000000262002ae7179091906401000000009004565b600e81905550620002016064620001e4601154856200043d6401000000000262002aaf179091906401000000009004565b620004796401000000000262002ae7179091906401000000009004565b600d8190555062000234600c546a1a1601fc4ea7109e000000601260ff1662000490640100000000026401000000009004565b60068190555062000267600e546a1a1601fc4ea7109e000000601260ff1662000490640100000000026401000000009004565b6008819055506200029a600d546a1a1601fc4ea7109e000000601260ff1662000490640100000000026401000000009004565b6009819055504260138190555050506200051b565b6000620002d682600154620004fe64010000000002620021e4179091906401000000009004565b6001819055506200033d826000808673ffffffffffffffffffffffffffffffffffffffff1673ffffffffffffffffffffffffffffffffffffffff16815260200190815260200160002054620004fe64010000000002620021e4179091906401000000009004565b6000808573ffffffffffffffffffffffffffffffffffffffff1673ffffffffffffffffffffffffffffffffffffffff168152602001908152602001600020819055508273ffffffffffffffffffffffffffffffffffffffff167f0f6798a560793a54c3bcfe86a93cde1e73087d944c0ea20544137d4121396885836040518082815260200191505060405180910390a28273ffffffffffffffffffffffffffffffffffffffff16600073ffffffffffffffffffffffffffffffffffffffff167fddf252ad1be2c89b69c2b068fc378daa952ba7f163c4a11628f55a4df523b3ef846040518082815260200191505060405180910390a36001905092915050565b60008083141562000452576000905062000473565b81830290508183828115156200046457fe5b041415156200046f57fe5b8090505b92915050565b600081838115156200048757fe5b04905092915050565b600080620004bc60018401600a0a866200043d6401000000000262002aaf179091906401000000009004565b9450600a6005620004e58688620004796401000000000262002ae7179091906401000000009004565b01811515620004f057fe5b049050809150509392505050565b600081830190508281101515156200051257fe5b80905092915050565b612b29806200052b6000396000f3006080604052600436106101ac576000357c0100000000000000000000000000000000000000000000000000000000900463ffffffff16806305d2035b146101bb57806306fdde03146101ea57806307c705081461027a578063095ea7b3146102a557806316f0115b1461030a57806318160ddd1461036157806323b872dd1461038c5780632def662014610411578063313ce567146104405780633b317dab146104715780634437152a146104d65780634dbe588914610519578063500844dd146105305780635199f1de1461054757806361c083b914610572578063661884631461058957806366e1cebd146105ee5780636b178f471461062f5780636b4e8bb01461064657806370a082311461067157806376965867146106c85780637d64bcb4146106f35780638da5cb5b1461072257806390cad5371461077957806395d89b41146107a45780639f727c2714610834578063a0d8b4e91461084b578063a9059cbb14610876578063ac185644146108db578063bc805c5214610906578063d73dd62314610933578063d9a14d6814610998578063dd62ed3e146109c3578063f2fde38b14610a3a575b3480156101b857600080fd5b50005b3480156101c757600080fd5b506101d0610a7d565b604051808215151515815260200191505060405180910390f35b3480156101f657600080fd5b506101ff610a90565b6040518080602001828103825283818151815260200191508051906020019080838360005b8381101561023f578082015181840152602081019050610224565b50505050905090810190601f16801561026c5780820380516001836020036101000a031916815260200191505b509250505060405180910390f35b34801561028657600080fd5b5061028f610ac9565b6040518082815260200191505060405180910390f35b3480156102b157600080fd5b506102f0600480360381019080803573ffffffffffffffffffffffffffffffffffffffff16906020019092919080359060200190929190505050610acf565b604051808215151515815260200191505060405180910390f35b34801561031657600080fd5b5061031f610bc1565b604051808273ffffffffffffffffffffffffffffffffffffffff1673ffffffffffffffffffffffffffffffffffffffff16815260200191505060405180910390f35b34801561036d57600080fd5b50610376610be7565b6040518082815260200191505060405180910390f35b34801561039857600080fd5b506103f7600480360381019080803573ffffffffffffffffffffffffffffffffffffffff169060200190929190803573ffffffffffffffffffffffffffffffffffffffff16906020019092919080359060200190929190505050610bf1565b604051808215151515815260200191505060405180910390f35b34801561041d57600080fd5b50610426610fab565b604051808215151515815260200191505060405180910390f35b34801561044c57600080fd5b5061045561131f565b604051808260ff1660ff16815260200191505060405180910390f35b34801561047d57600080fd5b506104b2600480360381019080803573ffffffffffffffffffffffffffffffffffffffff169060200190929190505050611324565b60405180848152602001838152602001828152602001935050505060405180910390f35b3480156104e257600080fd5b50610517600480360381019080803573ffffffffffffffffffffffffffffffffffffffff16906020019092919050505061134e565b005b34801561052557600080fd5b5061052e6113ee565b005b34801561053c57600080fd5b506105456114b4565b005b34801561055357600080fd5b5061055c6114f8565b6040518082815260200191505060405180910390f35b34801561057e57600080fd5b506105876114fe565b005b34801561059557600080fd5b506105d4600480360381019080803573ffffffffffffffffffffffffffffffffffffffff16906020019092919080359060200190929190505050611536565b604051808215151515815260200191505060405180910390f35b3480156105fa57600080fd5b50610619600480360381019080803590602001909291905050506117c7565b6040518082815260200191505060405180910390f35b34801561063b57600080fd5b50610644611883565b005b34801561065257600080fd5b5061065b61190f565b6040518082815260200191505060405180910390f35b34801561067d57600080fd5b506106b2600480360381019080803573ffffffffffffffffffffffffffffffffffffffff169060200190929190505050611915565b6040518082815260200191505060405180910390f35b3480156106d457600080fd5b506106dd61195d565b6040518082815260200191505060405180910390f35b3480156106ff57600080fd5b506107086119a7565b604051808215151515815260200191505060405180910390f35b34801561072e57600080fd5b50610737611a6f565b604051808273ffffffffffffffffffffffffffffffffffffffff1673ffffffffffffffffffffffffffffffffffffffff16815260200191505060405180910390f35b34801561078557600080fd5b5061078e611a95565b6040518082815260200191505060405180910390f35b3480156107b057600080fd5b506107b9611a9b565b6040518080602001828103825283818151815260200191508051906020019080838360005b838110156107f95780820151818401526020810190506107de565b50505050905090810190601f1680156108265780820380516001836020036101000a031916815260200191505b509250505060405180910390f35b34801561084057600080fd5b50610849611ad4565b005b34801561085757600080fd5b50610860611ba8565b6040518082815260200191505060405180910390f35b34801561088257600080fd5b506108c1600480360381019080803573ffffffffffffffffffffffffffffffffffffffff16906020019092919080359060200190929190505050611bae565b604051808215151515815260200191505060405180910390f35b3480156108e757600080fd5b506108f0611dcd565b6040518082815260200191505060405180910390f35b34801561091257600080fd5b5061093160048036038101908080359060200190929190505050611dd3565b005b34801561093f57600080fd5b5061097e600480360381019080803573ffffffffffffffffffffffffffffffffffffffff16906020019092919080359060200190929190505050611dea565b604051808215151515815260200191505060405180910390f35b3480156109a457600080fd5b506109ad611fe6565b6040518082815260200191505060405180910390f35b3480156109cf57600080fd5b50610a24600480360381019080803573ffffffffffffffffffffffffffffffffffffffff169060200190929190803573ffffffffffffffffffffffffffffffffffffffff169060200190929190505050611fec565b6040518082815260200191505060405180910390f35b348015610a4657600080fd5b50610a7b600480360381019080803573ffffffffffffffffffffffffffffffffffffffff169060200190929190505050612073565b005b600360149054906101000a900460ff1681565b6040805190810160405280600581526020017f536967696c00000000000000000000000000000000000000000000000000000081525081565b60095481565b600081600260003373ffffffffffffffffffffffffffffffffffffffff1673ffffffffffffffffffffffffffffffffffffffff16815260200190815260200160002060008573ffffffffffffffffffffffffffffffffffffffff1673ffffffffffffffffffffffffffffffffffffffff168152602001908152602001600020819055508273ffffffffffffffffffffffffffffffffffffffff163373ffffffffffffffffffffffffffffffffffffffff167f8c5be1e5ebec7d5bd14f71427d1e84f3dd0314c0f7b2291e5b200ac8c7c3b925846040518082815260200191505060405180910390a36001905092915050565b600460009054906101000a900473ffffffffffffffffffffffffffffffffffffffff1681565b6000600154905090565b60008073ffffffffffffffffffffffffffffffffffffffff168373ffffffffffffffffffffffffffffffffffffffff1614151515610c2e57600080fd5b6000808573ffffffffffffffffffffffffffffffffffffffff1673ffffffffffffffffffffffffffffffffffffffff168152602001908152602001600020548211151515610c7b57600080fd5b600260008573ffffffffffffffffffffffffffffffffffffffff1673ffffffffffffffffffffffffffffffffffffffff16815260200190815260200160002060003373ffffffffffffffffffffffffffffffffffffffff1673ffffffffffffffffffffffffffffffffffffffff168152602001908152602001600020548211151515610d0657600080fd5b610d57826000808773ffffffffffffffffffffffffffffffffffffffff1673ffffffffffffffffffffffffffffffffffffffff168152602001908152602001600020546121cb90919063ffffffff16565b6000808673ffffffffffffffffffffffffffffffffffffffff1673ffffffffffffffffffffffffffffffffffffffff16815260200190815260200160002081905550610dea826000808673ffffffffffffffffffffffffffffffffffffffff1673ffffffffffffffffffffffffffffffffffffffff168152602001908152602001600020546121e490919063ffffffff16565b6000808573ffffffffffffffffffffffffffffffffffffffff1673ffffffffffffffffffffffffffffffffffffffff16815260200190815260200160002081905550610ebb82600260008773ffffffffffffffffffffffffffffffffffffffff1673ffffffffffffffffffffffffffffffffffffffff16815260200190815260200160002060003373ffffffffffffffffffffffffffffffffffffffff1673ffffffffffffffffffffffffffffffffffffffff168152602001908152602001600020546121cb90919063ffffffff16565b600260008673ffffffffffffffffffffffffffffffffffffffff1673ffffffffffffffffffffffffffffffffffffffff16815260200190815260200160002060003373ffffffffffffffffffffffffffffffffffffffff1673ffffffffffffffffffffffffffffffffffffffff168152602001908152602001600020819055508273ffffffffffffffffffffffffffffffffffffffff168473ffffffffffffffffffffffffffffffffffffffff167fddf252ad1be2c89b69c2b068fc378daa952ba7f163c4a11628f55a4df523b3ef846040518082815260200191505060405180910390a3600190509392505050565b600080600080601560003373ffffffffffffffffffffffffffffffffffffffff1673ffffffffffffffffffffffffffffffffffffffff1681526020019081526020016000206000015411151561100057600080fd5b601560003373ffffffffffffffffffffffffffffffffffffffff1673ffffffffffffffffffffffffffffffffffffffff16815260200190815260200160002060010154421015151561105157600080fd5b6110a6601560003373ffffffffffffffffffffffffffffffffffffffff1673ffffffffffffffffffffffffffffffffffffffff16815260200190815260200160002060010154426121cb90919063ffffffff16565b91506110b182612200565b9050601560003373ffffffffffffffffffffffffffffffffffffffff1673ffffffffffffffffffffffffffffffffffffffff168152602001908152602001600020600001546000803373ffffffffffffffffffffffffffffffffffffffff1673ffffffffffffffffffffffffffffffffffffffff16815260200190815260200160002060008282540192505081905550601560003373ffffffffffffffffffffffffffffffffffffffff1673ffffffffffffffffffffffffffffffffffffffff16815260200190815260200160002060000154600a6000828254039250508190555061119d3382612482565b503373ffffffffffffffffffffffffffffffffffffffff167fa499197ed501de1424df2a7fb491b20a939468fbb6e47b99627aca4fe6fdb304601560003373ffffffffffffffffffffffffffffffffffffffff1673ffffffffffffffffffffffffffffffffffffffff1681526020019081526020016000206000015483604051808381526020018281526020019250505060405180910390a26000601560003373ffffffffffffffffffffffffffffffffffffffff1673ffffffffffffffffffffffffffffffffffffffff168152602001908152602001600020600001819055506000601560003373ffffffffffffffffffffffffffffffffffffffff1673ffffffffffffffffffffffffffffffffffffffff168152602001908152602001600020600101819055506000601560003373ffffffffffffffffffffffffffffffffffffffff1673ffffffffffffffffffffffffffffffffffffffff168152602001908152602001600020600201819055506113166114b4565b60019250505090565b601281565b60156020528060005260406000206000915090508060000154908060010154908060020154905083565b600360009054906101000a900473ffffffffffffffffffffffffffffffffffffffff1673ffffffffffffffffffffffffffffffffffffffff163373ffffffffffffffffffffffffffffffffffffffff161415156113aa57600080fd5b80600460006101000a81548173ffffffffffffffffffffffffffffffffffffffff021916908373ffffffffffffffffffffffffffffffffffffffff16021790555050565b6000806000600360009054906101000a900473ffffffffffffffffffffffffffffffffffffffff1673ffffffffffffffffffffffffffffffffffffffff163373ffffffffffffffffffffffffffffffffffffffff1614151561144f57600080fd5b6007544211151561145f57600080fd5b611474600754426121cb90919063ffffffff16565b925060008311151561148257fe5b61148e836008546125f0565b915061149a3383612482565b90508015156114a857600080fd5b42600781905550505050565b60004290506000600b6000838152602001908152602001600020541415156114db57600080fd5b600a54600b60008381526020019081526020016000208190555050565b60145481565b6301e1338061150f426013546121cb565b11151561151b57600080fd5b600a60125411151561152c57600080fd5b61153461260d565b565b600080600260003373ffffffffffffffffffffffffffffffffffffffff1673ffffffffffffffffffffffffffffffffffffffff16815260200190815260200160002060008573ffffffffffffffffffffffffffffffffffffffff1673ffffffffffffffffffffffffffffffffffffffff16815260200190815260200160002054905080831115611647576000600260003373ffffffffffffffffffffffffffffffffffffffff1673ffffffffffffffffffffffffffffffffffffffff16815260200190815260200160002060008673ffffffffffffffffffffffffffffffffffffffff1673ffffffffffffffffffffffffffffffffffffffff168152602001908152602001600020819055506116db565b61165a83826121cb90919063ffffffff16565b600260003373ffffffffffffffffffffffffffffffffffffffff1673ffffffffffffffffffffffffffffffffffffffff16815260200190815260200160002060008673ffffffffffffffffffffffffffffffffffffffff1673ffffffffffffffffffffffffffffffffffffffff168152602001908152602001600020819055505b8373ffffffffffffffffffffffffffffffffffffffff163373ffffffffffffffffffffffffffffffffffffffff167f8c5be1e5ebec7d5bd14f71427d1e84f3dd0314c0f7b2291e5b200ac8c7c3b925600260003373ffffffffffffffffffffffffffffffffffffffff1673ffffffffffffffffffffffffffffffffffffffff16815260200190815260200160002060008873ffffffffffffffffffffffffffffffffffffffff1673ffffffffffffffffffffffffffffffffffffffff168152602001908152602001600020546040518082815260200191505060405180910390a3600191505092915050565b6000806000601560003373ffffffffffffffffffffffffffffffffffffffff1673ffffffffffffffffffffffffffffffffffffffff1681526020019081526020016000206000015411151561181b57600080fd5b611870601560003373ffffffffffffffffffffffffffffffffffffffff1673ffffffffffffffffffffffffffffffffffffffff16815260200190815260200160002060010154846121cb90919063ffffffff16565b905061187b81612200565b915050919050565b60008060006005544211151561189857600080fd5b6118ad600554426121cb90919063ffffffff16565b92506000831115156118bb57fe5b6118c7836006546125f0565b91506118f5600460009054906101000a900473ffffffffffffffffffffffffffffffffffffffff1683612482565b905080151561190357600080fd5b42600581905550505050565b60135481565b60008060008373ffffffffffffffffffffffffffffffffffffffff1673ffffffffffffffffffffffffffffffffffffffff168152602001908152602001600020549050919050565b6000601560003373ffffffffffffffffffffffffffffffffffffffff1673ffffffffffffffffffffffffffffffffffffffff16815260200190815260200160002060000154905090565b6000600360009054906101000a900473ffffffffffffffffffffffffffffffffffffffff1673ffffffffffffffffffffffffffffffffffffffff163373ffffffffffffffffffffffffffffffffffffffff16141515611a0557600080fd5b600360149054906101000a900460ff16151515611a2157600080fd5b6001600360146101000a81548160ff0219169083151502179055507fae5184fba832cb2b1f702aca6117b8d265eaf03ad33eb133f19dde0f5920fa0860405160405180910390a16001905090565b600360009054906101000a900473ffffffffffffffffffffffffffffffffffffffff1681565b60065481565b6040805190810160405280600381526020017f53474c000000000000000000000000000000000000000000000000000000000081525081565b600360009054906101000a900473ffffffffffffffffffffffffffffffffffffffff1673ffffffffffffffffffffffffffffffffffffffff163373ffffffffffffffffffffffffffffffffffffffff16141515611b3057600080fd5b600360009054906101000a900473ffffffffffffffffffffffffffffffffffffffff1673ffffffffffffffffffffffffffffffffffffffff166108fc3073ffffffffffffffffffffffffffffffffffffffff16319081150290604051600060405180830381858888f193505050501515611ba657fe5b565b60085481565b60008073ffffffffffffffffffffffffffffffffffffffff168373ffffffffffffffffffffffffffffffffffffffff1614151515611beb57600080fd5b6000803373ffffffffffffffffffffffffffffffffffffffff1673ffffffffffffffffffffffffffffffffffffffff168152602001908152602001600020548211151515611c3857600080fd5b611c89826000803373ffffffffffffffffffffffffffffffffffffffff1673ffffffffffffffffffffffffffffffffffffffff168152602001908152602001600020546121cb90919063ffffffff16565b6000803373ffffffffffffffffffffffffffffffffffffffff1673ffffffffffffffffffffffffffffffffffffffff16815260200190815260200160002081905550611d1c826000808673ffffffffffffffffffffffffffffffffffffffff1673ffffffffffffffffffffffffffffffffffffffff168152602001908152602001600020546121e490919063ffffffff16565b6000808573ffffffffffffffffffffffffffffffffffffffff1673ffffffffffffffffffffffffffffffffffffffff168152602001908152602001600020819055508273ffffffffffffffffffffffffffffffffffffffff163373ffffffffffffffffffffffffffffffffffffffff167fddf252ad1be2c89b69c2b068fc378daa952ba7f163c4a11628f55a4df523b3ef846040518082815260200191505060405180910390a36001905092915050565b60075481565b611ddc816127db565b1515611de757600080fd5b50565b6000611e7b82600260003373ffffffffffffffffffffffffffffffffffffffff1673ffffffffffffffffffffffffffffffffffffffff16815260200190815260200160002060008673ffffffffffffffffffffffffffffffffffffffff1673ffffffffffffffffffffffffffffffffffffffff168152602001908152602001600020546121e490919063ffffffff16565b600260003373ffffffffffffffffffffffffffffffffffffffff1673ffffffffffffffffffffffffffffffffffffffff16815260200190815260200160002060008573ffffffffffffffffffffffffffffffffffffffff1673ffffffffffffffffffffffffffffffffffffffff168152602001908152602001600020819055508273ffffffffffffffffffffffffffffffffffffffff163373ffffffffffffffffffffffffffffffffffffffff167f8c5be1e5ebec7d5bd14f71427d1e84f3dd0314c0f7b2291e5b200ac8c7c3b925600260003373ffffffffffffffffffffffffffffffffffffffff1673ffffffffffffffffffffffffffffffffffffffff16815260200190815260200160002060008773ffffffffffffffffffffffffffffffffffffffff1673ffffffffffffffffffffffffffffffffffffffff168152602001908152602001600020546040518082815260200191505060405180910390a36001905092915050565b600a5481565b6000600260008473ffffffffffffffffffffffffffffffffffffffff1673ffffffffffffffffffffffffffffffffffffffff16815260200190815260200160002060008373ffffffffffffffffffffffffffffffffffffffff1673ffffffffffffffffffffffffffffffffffffffff16815260200190815260200160002054905092915050565b600360009054906101000a900473ffffffffffffffffffffffffffffffffffffffff1673ffffffffffffffffffffffffffffffffffffffff163373ffffffffffffffffffffffffffffffffffffffff161415156120cf57600080fd5b600073ffffffffffffffffffffffffffffffffffffffff168173ffffffffffffffffffffffffffffffffffffffff161415151561210b57600080fd5b8073ffffffffffffffffffffffffffffffffffffffff16600360009054906101000a900473ffffffffffffffffffffffffffffffffffffffff1673ffffffffffffffffffffffffffffffffffffffff167f8be0079c531659141344cd1fd0a4f28419497f9722a3daafe3b4186f6b6457e060405160405180910390a380600360006101000a81548173ffffffffffffffffffffffffffffffffffffffff021916908373ffffffffffffffffffffffffffffffffffffffff16021790555050565b60008282111515156121d957fe5b818303905092915050565b600081830190508281101515156121f757fe5b80905092915050565b6000806000806000806000806000806000612266601560003373ffffffffffffffffffffffffffffffffffffffff1673ffffffffffffffffffffffffffffffffffffffff16815260200190815260200160002060010154426121cb90919063ffffffff16565b9950429850601560003373ffffffffffffffffffffffffffffffffffffffff1673ffffffffffffffffffffffffffffffffffffffff1681526020019081526020016000206001015497506122c3888a6121cb90919063ffffffff16565b965060009550600094508792505b88831115156123fc576000600b60008581526020019081526020016000205414156123605761235961234a601560003373ffffffffffffffffffffffffffffffffffffffff1673ffffffffffffffffffffffffffffffffffffffff1681526020019081526020016000206000015486601260ff16612a62565b876121e490919063ffffffff16565b95506123ef565b6123d66123c7601560003373ffffffffffffffffffffffffffffffffffffffff1673ffffffffffffffffffffffffffffffffffffffff16815260200190815260200160002060000154600b600087815260200190815260200160002054601260ff16612a62565b876121e490919063ffffffff16565b9550600b60008481526020019081526020016000205493505b82806001019350506122d1565b612408868b6000612a62565b915061241f82600954612aaf90919063ffffffff16565b905061243c670de0b6b3a764000082612ae790919063ffffffff16565b905061246e612468601861245a603c8e612aaf90919063ffffffff16565b612aaf90919063ffffffff16565b826125f0565b9450859a5050505050505050505050919050565b6000612499826001546121e490919063ffffffff16565b6001819055506124f0826000808673ffffffffffffffffffffffffffffffffffffffff1673ffffffffffffffffffffffffffffffffffffffff168152602001908152602001600020546121e490919063ffffffff16565b6000808573ffffffffffffffffffffffffffffffffffffffff1673ffffffffffffffffffffffffffffffffffffffff168152602001908152602001600020819055508273ffffffffffffffffffffffffffffffffffffffff167f0f6798a560793a54c3bcfe86a93cde1e73087d944c0ea20544137d4121396885836040518082815260200191505060405180910390a28273ffffffffffffffffffffffffffffffffffffffff16600073ffffffffffffffffffffffffffffffffffffffff167fddf252ad1be2c89b69c2b068fc378daa952ba7f163c4a11628f55a4df523b3ef846040518082815260200191505060405180910390a36001905092915050565b60006126058284612aaf90919063ffffffff16565b905092915050565b612615610be7565b601481905550426013819055506064601254111561264e5761264360966012546121cb90919063ffffffff16565b60128190555061266b565b61266460056012546121cb90919063ffffffff16565b6012819055505b6126bd60646126af600f546126a16103e8612693601254601454612aaf90919063ffffffff16565b612ae790919063ffffffff16565b612aaf90919063ffffffff16565b612ae790919063ffffffff16565b600c8190555061271560646127076010546126f96103e86126eb601254601454612aaf90919063ffffffff16565b612ae790919063ffffffff16565b612aaf90919063ffffffff16565b612ae790919063ffffffff16565b600e8190555061276d606461275f6011546127516103e8612743601254601454612aaf90919063ffffffff16565b612ae790919063ffffffff16565b612aaf90919063ffffffff16565b612ae790919063ffffffff16565b600d8190555061278f600c546a1a1601fc4ea7109e000000601260ff16612a62565b6006819055506127b1600e546a1a1601fc4ea7109e000000601260ff16612a62565b6008819055506127d3600d546a1a1601fc4ea7109e000000601260ff16612a62565b600981905550565b60008060003373ffffffffffffffffffffffffffffffffffffffff1673ffffffffffffffffffffffffffffffffffffffff16815260200190815260200160002054821115151561282a57600080fd5b6000601560003373ffffffffffffffffffffffffffffffffffffffff1673ffffffffffffffffffffffffffffffffffffffff1681526020019081526020016000206000015414151561287b57600080fd5b6128cc826000803373ffffffffffffffffffffffffffffffffffffffff1673ffffffffffffffffffffffffffffffffffffffff168152602001908152602001600020546121cb90919063ffffffff16565b6000803373ffffffffffffffffffffffffffffffffffffffff1673ffffffffffffffffffffffffffffffffffffffff1681526020019081526020016000208190555081601560003373ffffffffffffffffffffffffffffffffffffffff1673ffffffffffffffffffffffffffffffffffffffff1681526020019081526020016000206000018190555081600a6000828254019250508190555061297682600a54601260ff16612a62565b601560003373ffffffffffffffffffffffffffffffffffffffff1673ffffffffffffffffffffffffffffffffffffffff1681526020019081526020016000206002018190555042601560003373ffffffffffffffffffffffffffffffffffffffff1673ffffffffffffffffffffffffffffffffffffffff16815260200190815260200160002060010181905550612a0b6114b4565b3373ffffffffffffffffffffffffffffffffffffffff167febedb8b3c678666e7f36970bc8f57abf6d8fa2e828c0da91ea5b75bf68ed101a836040518082815260200191505060405180910390a260019050919050565b600080612a7e60018401600a0a86612aaf90919063ffffffff16565b9450600a6005612a978688612ae790919063ffffffff16565b01811515612aa157fe5b049050809150509392505050565b600080831415612ac25760009050612ae1565b8183029050818382811515612ad357fe5b04141515612add57fe5b8090505b92915050565b60008183811515612af457fe5b049050929150505600a165627a7a72305820099d4f778c3c90ad9aeeaf161dc6783cdcb2a461e2b306bd6bb9379d321d68380029",
  "source": "pragma solidity ^0.4.18;\n\n/**************************************************************\n * @title Sigil Token Contract\n * @file Sigil.sol\n * @author Jared Downing, Kane Thomas, Sigil LLC\n * @version 1.0\n *\n * @section LICENSE\n *\n * Contact for licensing details. All rights reserved.\n *\n * @section DESCRIPTION\n *\n * This is an ERC20-based token with staking and pooling functionality.\n *\n *************************************************************/\n//////////////////////////////////\n/// OpenZeppelin library imports\n//////////////////////////////////\n\n//Imports\n/* import \"./MintableToken.sol\";\nimport \"http://github.com/OpenZeppelin/zeppelin-solidity/contracts/ownership/HasNoEther.sol\"; */\n\nimport 'openzeppelin-solidity/contracts/token/ERC20/MintableToken.sol';\nimport 'openzeppelin-solidity/contracts/ownership/HasNoEther.sol';\n\ncontract Sigil is MintableToken, HasNoEther {\n    // Using libraries\n    using SafeMath for uint;\n\n    //////////////////////////////////////////////////\n    /// State Variables for the Sigil token contract\n    //////////////////////////////////////////////////\n\n    //////////////////////\n    // Human token state\n    //////////////////////\n    string public constant name = \"Sigil\";\n    string public constant symbol = \"SGL\";\n    uint8 public constant  decimals = 18;\n\n    ///////////////////////////////////////////////////////////\n    // State variables for custom staking and pooling\n    ///////////////////////////////////////////////////////////\n\n    // Pool for coin distribution to Sigil products\n    address public pool;\n    // Pool last minted time\n    uint poolTimeLastMinted;\n    // Pool minted tokens per second\n    uint public poolMintRate;\n\n    // Owner last minted time\n    uint public ownerTimeLastMinted;\n    // Owner minted tokens per second\n    uint public ownerMintRate;\n\n    /// Stake minting\n    // Minted tokens per second for all stakers\n    uint public globalMintRate;\n    // Total tokens currently staked\n    uint public totalSigilStaked;\n\n    // Maps the timestamp of staking to a total amount staing during that time\n    mapping (uint => uint) dailyTotalStakedHistory;\n\n    // 70% to pool\n    uint256 poolMintAmount;\n    // 25% to staking\n    uint256 globalMintAmount;\n    // %5 to owner\n    uint256 ownerMintAmount;\n\n    // Percentage values for distribution\n    uint poolPercentage = 70;\n    uint ownerPercentage = 5;\n    uint globalPercentage = 25;\n\n    // Inflation\n    // Inflation rate begins at %100 per year and decreases afterwards\n    uint256 inflationRate = 1000;\n    // Used to manage when to inflate\n    uint256 public lastInflationUpdate;\n    // Used to calculate how much to inflate by\n    uint256 public lastYearTotalSupply;\n\n\n    // Struct that will hold user staking information\n    struct TokenStakeData {\n        uint initialStakeBalance;\n        uint initialStakeTime;\n        uint initialStakePercentage;\n    }\n\n    // Track all tokens staked\n    mapping (address => TokenStakeData) public stakeBalances;\n\n    // Fire a loggable event when tokens are staked\n    event Stake(address indexed staker, uint256 value);\n\n    // Fire a loggable event when staked tokens are vested\n    event Vest(address indexed vester, uint256 stakedAmount, uint256 stakingGains);\n\n    //////////////////////////////////////////////////\n    /// Begin Sigil token functionality\n    //////////////////////////////////////////////////\n\n    /// @dev Sigil token constructor\n    constructor() public {\n        // Define owner\n        owner = msg.sender;\n\n        // Define initial owner supply. (ether here is used only to get the decimals right)\n        uint _initOwnerSupply = 8000000 ether;\n        // One-time bulk mint given to owner\n        bool _success = mint(msg.sender, _initOwnerSupply);\n        // Abort if initial minting failed for whatever reason\n        require(_success);\n\n        ////////////////////////////////////\n        // Set up state minting variables\n        ////////////////////////////////////\n\n        // Set pool and owner last minted to current block.timestamp ('now')\n        ownerTimeLastMinted = now;\n\n        poolTimeLastMinted = now;\n\n        // Set minting rate for pool, staking, and owner over the course of 1 year\n        poolMintAmount = _initOwnerSupply.mul(poolPercentage).div(100);\n        ownerMintAmount = _initOwnerSupply.mul(ownerPercentage).div(100);\n        globalMintAmount = _initOwnerSupply.mul(globalPercentage).div(100);\n\n        poolMintRate = calculateFraction(poolMintAmount, 31536000 ether, decimals);\n        ownerMintRate = calculateFraction(ownerMintAmount, 31536000 ether, decimals);\n        globalMintRate = calculateFraction(globalMintAmount, 31536000 ether, decimals);\n\n        lastInflationUpdate = now;\n    }\n\n    /////////////\n    // Inflation\n    /////////////\n\n    //@dev the inflation rate begins at 100% and decreases by 15% every year until it reaches 10%.\n    //    at 10% the rate begins to decrease by %5 until it reaches 1%.\n    function adjustInflationRate() internal {\n\n      lastYearTotalSupply = totalSupply();\n\n      lastInflationUpdate = now;\n\n      //Decrease inflation rate by %15 each year\n      if (inflationRate > 100) {\n\n        inflationRate = inflationRate.sub(150);\n      }\n      //Inflation rate reaches %10. Decrease inflation rate by 0.05 from here on out until it reaches %1.\n      else {\n\n          inflationRate = inflationRate.sub(5);\n      }\n\n      //Calculate new amount rate\n      poolMintAmount = lastYearTotalSupply.mul(inflationRate).div(1000).mul(poolPercentage).div(100);\n      ownerMintAmount = lastYearTotalSupply.mul(inflationRate).div(1000).mul(ownerPercentage).div(100);\n      globalMintAmount = lastYearTotalSupply.mul(inflationRate).div(1000).mul(globalPercentage).div(100);\n\n      //Adjust inflation rates\n      poolMintRate = calculateFraction(poolMintAmount, 31536000 ether, decimals);\n      ownerMintRate = calculateFraction(ownerMintAmount, 31536000 ether, decimals);\n      globalMintRate = calculateFraction(globalMintAmount, 31536000 ether, decimals);\n    }\n\n    //@dev anyone can call this function to update the inflation rate yearly\n    function updateInflationRate() public {\n\n      // Require one year to have passed for every inflation adjustment\n      require(SafeMath.sub(now, lastInflationUpdate) > 1 years);\n\n      // Stop inflation rate changes at %1\n      require(inflationRate > 10);\n\n      adjustInflationRate();\n\n    }\n\n    /////////////\n    // Staking\n    /////////////\n\n    /// @dev staking function which allows users to stake an amount of tokens to gain interest for up to 30 days\n    function stakeSigil(uint _stakeAmount) external {\n        // Require that tokens are staked successfully\n        require(stake(_stakeAmount));\n    }\n\n    /// @dev stake function reduces the user's total available balance and adds it to their staking balance\n    /// @param _value determines how many tokens a user wants to stake\n    function stake(uint256 _value) private returns (bool success) {\n        /// Sanity Checks:\n        // You can only stake as many tokens as you have\n        require(_value <= balances[msg.sender]);\n        // You can only stake tokens if you have not already staked tokens\n        require(stakeBalances[msg.sender].initialStakeBalance == 0);\n\n        // Subtract stake amount from regular token balance\n        balances[msg.sender] = balances[msg.sender].sub(_value);\n\n        // Add stake amount to staked balance\n        stakeBalances[msg.sender].initialStakeBalance = _value;\n\n        // Increment the global staked tokens value\n        totalSigilStaked += _value;\n\n        /// Determine percentage of global stake\n        stakeBalances[msg.sender].initialStakePercentage = calculateFraction(_value, totalSigilStaked, decimals);\n\n        // Save the time that the stake started\n        stakeBalances[msg.sender].initialStakeTime = now;\n\n        //Set the new staking history\n        setTotalStakingHistory();\n\n        // Fire an event to tell the world of the newly staked tokens\n        emit Stake(msg.sender, _value);\n\n        return true;\n    }\n\n    // @dev returns how much Sigil a user has earned so far\n    // @param _now is passed in to allow for a gas-free analysis\n    // @return staking gains based on the amount of time passed since staking began\n    function getStakingGains(uint _now) public returns (uint) {\n        require(stakeBalances[msg.sender].initialStakeBalance > 0);\n        uint _timePassedSinceStake = _now.sub(stakeBalances[msg.sender].initialStakeTime);\n        return calculateStakeGains(_timePassedSinceStake);\n    }\n\n    /// @dev allows users to reclaim any staked tokens\n    /// @return bool on success\n    function unstake() external returns (bool) {\n\n        /// Sanity checks:\n        // require that there was some amount vested\n        require(stakeBalances[msg.sender].initialStakeBalance > 0);\n        // require that time has elapsed\n        require(now >= stakeBalances[msg.sender].initialStakeTime);\n\n        // Calculate the time elapsed since the tokens were originally staked\n        uint _timePassedSinceStake = now.sub(stakeBalances[msg.sender].initialStakeTime);\n\n        // Calculate tokens to mint\n        uint _tokensToMint = calculateStakeGains(_timePassedSinceStake);\n\n        // Add the original stake back to the user's balance\n        balances[msg.sender] += stakeBalances[msg.sender].initialStakeBalance;\n\n        // Subtract stake balance from totalSigilStaked\n        totalSigilStaked -= stakeBalances[msg.sender].initialStakeBalance;\n\n        mint(msg.sender, _tokensToMint);\n\n        // Fire an event to tell the world of the newly vested tokens\n        emit Vest(msg.sender, stakeBalances[msg.sender].initialStakeBalance, _tokensToMint);\n\n        // Clear out stored data from mapping\n        stakeBalances[msg.sender].initialStakeBalance = 0;\n        stakeBalances[msg.sender].initialStakeTime = 0;\n        stakeBalances[msg.sender].initialStakePercentage = 0;\n\n        //Set the new staking history\n        setTotalStakingHistory();\n\n        return true;\n    }\n\n    /* DEPRICATED AF\n\n\n    /// @dev Helper function to claimStake that modularizes the minting via staking calculation\n    function calculateStakeGains(uint _timePassedSinceStake) view private returns (uint mintTotal) {\n\n        uint _secondsIn30Days = 2592000; // Store seconds in a 30 days\n        uint _finalStakePercentage;     // store our stake percentage at the time of stake claim\n        uint _stakePercentageAverage;   // store our calculated average minting rate ((initial+final) / 2)\n        uint _finalMintRate;            // store our calculated final mint rate (in Sigil-per-second)\n        uint _tokensToMint = 0;         // store number of new tokens to be minted\n\n        // Determine the amount to be newly minted upon vesting, if any\n        // First, calculate our final stake percentage based upon the total amount of Sigil staked\n        _finalStakePercentage = calculateFraction(stakeBalances[msg.sender].initialStakeBalance, totalSigilStaked, decimals);\n\n        // Second, calculate average of initial and final stake percentage\n        _stakePercentageAverage = calculateFraction((stakeBalances[msg.sender].initialStakePercentage.add(_finalStakePercentage)), 2, 0);\n\n        // Finally, calculate our final mint rate (in Sigil-per-second)\n        _finalMintRate = globalMintRate.mul(_stakePercentageAverage);\n        _finalMintRate = _finalMintRate.div(1 ether);\n\n        //Limit Sigil minted to a maximum of 30 days worth\n        if (_timePassedSinceStake > _secondsIn30Days) {\n            // Tokens were staked for the maximum amount of time (30 days)\n            _tokensToMint = calculateMintTotal(_secondsIn30Days, _finalMintRate);\n        } else {\n            // Tokens were staked for a mintable amount of time, but less than the 30-day max\n            _tokensToMint = calculateMintTotal(_timePassedSinceStake, _finalMintRate);\n        }\n\n        // Return the amount of new tokens to be minted\n        return _tokensToMint;\n\n    } */\n\n    // @dev Helper function to claimStake that modularizes the minting via staking calculation\n    function calculateStakeGains(uint _timePassedSinceStake) private returns (uint mintTotal)  {\n\n      // TESTING: Currently using seconds. After testing add .div(60).div(24) to now and initialStakeTime with ;\n      uint _testingTimePassedSinceStake = now.sub(stakeBalances[msg.sender].initialStakeTime);\n\n      uint _nowAsOneDay = now;    // Today as a unique value in unix time\n      uint _initialStakeTimeInDays = stakeBalances[msg.sender].initialStakeTime; // When the user started staking as a unique day in unix time\n      uint _timePassedSinceStakeInDays = _nowAsOneDay.sub(_initialStakeTimeInDays); // How much time has passed, in days, since the user started staking.\n      uint _dailyStakePercentages = 0; // Keeps an additive track of the user's staking percentages over time\n      uint _tokensToMint = 0; // How many new Sigil tokens to create\n      uint _lastUsedDay;  // Last day the totalSigilStaked was updated\n\n      // Loop through all days since staking and average this msg.sender's relative percentage ownership of totalSigilStaked\n      for (uint i = _initialStakeTimeInDays; i <= _nowAsOneDay; i++) {\n\n        // If the day does not exist in the totalSigilStaked mapping, use the last day found before that.\n        // If the day does exist add it and set it as the last day tracked\n        if (dailyTotalStakedHistory[i] == 0) {\n\n          _dailyStakePercentages = _dailyStakePercentages.add(calculateFraction(stakeBalances[msg.sender].initialStakeBalance, _lastUsedDay, decimals));\n        }\n        else {\n\n          _dailyStakePercentages = _dailyStakePercentages.add(calculateFraction(stakeBalances[msg.sender].initialStakeBalance, dailyTotalStakedHistory[i], decimals));\n\n          _lastUsedDay = dailyTotalStakedHistory[i];\n        }\n      }\n\n      uint _stakePercentageAverage = calculateFraction(_dailyStakePercentages, _testingTimePassedSinceStake, 0);\n\n      uint _finalMintRate = globalMintRate.mul(_stakePercentageAverage);\n\n      _finalMintRate = _finalMintRate.div(1 ether);\n\n      //TESTING: Convert seconds to days. Remove .mul(60).mul(24) to change back to days.\n      _tokensToMint = calculateMintTotal(_testingTimePassedSinceStake.mul(60).mul(24), _finalMintRate);\n\n      return _dailyStakePercentages;\n    }\n\n    function setTotalStakingHistory() public {\n\n      //TESTING: CHANGE BACK TO DAYS RATHER THAN SECONDS\n      uint _nowAsOneDay = now;\n\n      require(dailyTotalStakedHistory[_nowAsOneDay] == 0);\n\n      dailyTotalStakedHistory[_nowAsOneDay] = totalSigilStaked;\n\n    }\n\n    /// @dev Allows user to check their staked balance\n    /// @return staked balance\n    function getStakedBalance() view external returns (uint stakedBalance) {\n        return stakeBalances[msg.sender].initialStakeBalance;\n    }\n\n    /////////////\n    // Sigil Owner Claiming\n    /////////////\n\n    /// @dev allows contract owner to claim their mint\n    function ownerClaim() external onlyOwner {\n        // Sanity check: ensure that we didn't travel back in time\n        require(now > ownerTimeLastMinted);\n\n        uint _timePassedSinceLastMint;\n        uint _tokenMintCount;\n        bool _mintingSuccess;\n\n        // Calculate the number of seconds that have passed since the owner last took a claim\n        _timePassedSinceLastMint = now.sub(ownerTimeLastMinted);\n\n        // Sanity check: ensure that some time has passed since the owner last claimed\n        assert(_timePassedSinceLastMint > 0);\n\n        // Determine the token mint amount, determined from the number of seconds passed and the ownerMintRate\n        _tokenMintCount = calculateMintTotal(_timePassedSinceLastMint, ownerMintRate);\n\n        // Mint the owner's tokens; this also increases totalSupply\n        _mintingSuccess = mint(msg.sender, _tokenMintCount);\n\n        // Sanity check: ensure that the minting was successful\n        require(_mintingSuccess);\n\n        // New minting was a success! Set last time minted to current block.timestamp (now)\n        ownerTimeLastMinted = now;\n    }\n\n\n    ////////////////////////////////\n    // Sigil Pool distribution\n    ////////////////////////////////\n\n    // @dev anyone can call this function. it mints Sigil to the pool dedicated to Sigil distribution to projects\n    function poolIssue() public {\n        // Sanity check: ensure that we didn't travel back in time\n        require(now > poolTimeLastMinted);\n\n        uint _timePassedSinceLastMint;\n        uint _tokenMintCount;\n        bool _mintingSuccess;\n\n        // Calculate the number of seconds that have passed since the owner last took a claim\n        _timePassedSinceLastMint = now.sub(poolTimeLastMinted);\n\n        // Sanity check: ensure that some time has passed since the owner last claimed\n        assert(_timePassedSinceLastMint > 0);\n\n        // Determine the token mint amount, determined from the number of seconds passed and the ownerMintRate\n        _tokenMintCount = calculateMintTotal(_timePassedSinceLastMint, poolMintRate);\n\n        // Mint the owner's tokens; this also increases totalSupply\n        _mintingSuccess = mint(pool, _tokenMintCount);\n\n        // Sanity check: ensure that the minting was successful\n        require(_mintingSuccess);\n\n        // New minting was a success! Set last time minted to current block.timestamp (now)\n        poolTimeLastMinted = now;\n    }\n\n    // @dev sets the address for the pooling\n    // @param new pool Address\n    function setPool(address _newAddress) public onlyOwner {\n\n        pool = _newAddress;\n    }\n\n\n    /// @dev calculateFraction allows us to better handle the Solidity ugliness of not having decimals as a native type\n    /// @param _numerator is the top part of the fraction we are calculating\n    /// @param _denominator is the bottom part of the fraction we are calculating\n    /// @param _precision tells the function how many significant digits to calculate out to\n    /// @return quotient returns the result of our fraction calculation\n    function calculateFraction(uint _numerator, uint _denominator, uint _precision) pure private returns(uint quotient) {\n        // Take passed value and expand it to the required precision\n        _numerator = _numerator.mul(10 ** (_precision + 1));\n        // handle last-digit rounding\n        uint _quotient = ((_numerator.div(_denominator)) + 5) / 10;\n        return (_quotient);\n    }\n\n    /// @dev Determines mint total based upon how many seconds have passed\n    /// @param _timeInSeconds takes the time that has elapsed since the last minting\n    /// @return uint with the calculated number of new tokens to mint\n    function calculateMintTotal(uint _timeInSeconds, uint _mintRate) pure private returns(uint mintAmount) {\n        // Calculates the amount of tokens to mint based upon the number of seconds passed\n        return(_timeInSeconds.mul(_mintRate));\n    }\n\n}\n",
  "sourcePath": "/Users/jareddowning/Desktop/Sigil/SigilCoinFinal/contracts/Sigil.sol",
  "compiler": {
    "name": "solc",
    "version": "0.4.24+commit.e67f0147.Emscripten.clang"
  },
  "schemaVersion": "2.0.0",
  "updatedAt": "2018-07-25T22:26:17.868Z"
}